{
  "contractName": "ServerNft",
  "abi": [
    {
      "inputs": [
        {
          "internalType": "string",
          "name": "name",
          "type": "string"
        },
        {
          "internalType": "string",
          "name": "symbol",
          "type": "string"
        },
        {
          "internalType": "string",
          "name": "baseTokenURI",
          "type": "string"
        }
      ],
      "stateMutability": "nonpayable",
      "type": "constructor"
    },
    {
      "anonymous": false,
      "inputs": [
        {
          "indexed": true,
          "internalType": "address",
          "name": "owner",
          "type": "address"
        },
        {
          "indexed": true,
          "internalType": "address",
          "name": "approved",
          "type": "address"
        },
        {
          "indexed": true,
          "internalType": "uint256",
          "name": "tokenId",
          "type": "uint256"
        }
      ],
      "name": "Approval",
      "type": "event"
    },
    {
      "anonymous": false,
      "inputs": [
        {
          "indexed": true,
          "internalType": "address",
          "name": "owner",
          "type": "address"
        },
        {
          "indexed": true,
          "internalType": "address",
          "name": "operator",
          "type": "address"
        },
        {
          "indexed": false,
          "internalType": "bool",
          "name": "approved",
          "type": "bool"
        }
      ],
      "name": "ApprovalForAll",
      "type": "event"
    },
    {
      "anonymous": false,
      "inputs": [
        {
          "indexed": false,
          "internalType": "address",
          "name": "account",
          "type": "address"
        }
      ],
      "name": "Paused",
      "type": "event"
    },
    {
      "anonymous": false,
      "inputs": [
        {
          "indexed": true,
          "internalType": "bytes32",
          "name": "role",
          "type": "bytes32"
        },
        {
          "indexed": true,
          "internalType": "bytes32",
          "name": "previousAdminRole",
          "type": "bytes32"
        },
        {
          "indexed": true,
          "internalType": "bytes32",
          "name": "newAdminRole",
          "type": "bytes32"
        }
      ],
      "name": "RoleAdminChanged",
      "type": "event"
    },
    {
      "anonymous": false,
      "inputs": [
        {
          "indexed": true,
          "internalType": "bytes32",
          "name": "role",
          "type": "bytes32"
        },
        {
          "indexed": true,
          "internalType": "address",
          "name": "account",
          "type": "address"
        },
        {
          "indexed": true,
          "internalType": "address",
          "name": "sender",
          "type": "address"
        }
      ],
      "name": "RoleGranted",
      "type": "event"
    },
    {
      "anonymous": false,
      "inputs": [
        {
          "indexed": true,
          "internalType": "bytes32",
          "name": "role",
          "type": "bytes32"
        },
        {
          "indexed": true,
          "internalType": "address",
          "name": "account",
          "type": "address"
        },
        {
          "indexed": true,
          "internalType": "address",
          "name": "sender",
          "type": "address"
        }
      ],
      "name": "RoleRevoked",
      "type": "event"
    },
    {
      "anonymous": false,
      "inputs": [
        {
          "indexed": true,
          "internalType": "address",
          "name": "from",
          "type": "address"
        },
        {
          "indexed": true,
          "internalType": "address",
          "name": "to",
          "type": "address"
        },
        {
          "indexed": true,
          "internalType": "uint256",
          "name": "tokenId",
          "type": "uint256"
        }
      ],
      "name": "Transfer",
      "type": "event"
    },
    {
      "anonymous": false,
      "inputs": [
        {
          "indexed": false,
          "internalType": "address",
          "name": "account",
          "type": "address"
        }
      ],
      "name": "Unpaused",
      "type": "event"
    },
    {
      "inputs": [],
      "name": "DEFAULT_ADMIN_ROLE",
      "outputs": [
        {
          "internalType": "bytes32",
          "name": "",
          "type": "bytes32"
        }
      ],
      "stateMutability": "view",
      "type": "function",
      "constant": true
    },
    {
      "inputs": [],
      "name": "MINTER_ROLE",
      "outputs": [
        {
          "internalType": "bytes32",
          "name": "",
          "type": "bytes32"
        }
      ],
      "stateMutability": "view",
      "type": "function",
      "constant": true
    },
    {
      "inputs": [],
      "name": "PAUSER_ROLE",
      "outputs": [
        {
          "internalType": "bytes32",
          "name": "",
          "type": "bytes32"
        }
      ],
      "stateMutability": "view",
      "type": "function",
      "constant": true
    },
    {
      "inputs": [
        {
          "internalType": "address",
          "name": "to",
          "type": "address"
        },
        {
          "internalType": "uint256",
          "name": "tokenId",
          "type": "uint256"
        }
      ],
      "name": "approve",
      "outputs": [],
      "stateMutability": "nonpayable",
      "type": "function"
    },
    {
      "inputs": [
        {
          "internalType": "address",
          "name": "owner",
          "type": "address"
        }
      ],
      "name": "balanceOf",
      "outputs": [
        {
          "internalType": "uint256",
          "name": "",
          "type": "uint256"
        }
      ],
      "stateMutability": "view",
      "type": "function",
      "constant": true
    },
    {
      "inputs": [
        {
          "internalType": "uint256",
          "name": "tokenId",
          "type": "uint256"
        }
      ],
      "name": "burn",
      "outputs": [],
      "stateMutability": "nonpayable",
      "type": "function"
    },
    {
      "inputs": [
        {
          "internalType": "uint256",
          "name": "tokenId",
          "type": "uint256"
        }
      ],
      "name": "getApproved",
      "outputs": [
        {
          "internalType": "address",
          "name": "",
          "type": "address"
        }
      ],
      "stateMutability": "view",
      "type": "function",
      "constant": true
    },
    {
      "inputs": [
        {
          "internalType": "bytes32",
          "name": "role",
          "type": "bytes32"
        }
      ],
      "name": "getRoleAdmin",
      "outputs": [
        {
          "internalType": "bytes32",
          "name": "",
          "type": "bytes32"
        }
      ],
      "stateMutability": "view",
      "type": "function",
      "constant": true
    },
    {
      "inputs": [
        {
          "internalType": "bytes32",
          "name": "role",
          "type": "bytes32"
        },
        {
          "internalType": "uint256",
          "name": "index",
          "type": "uint256"
        }
      ],
      "name": "getRoleMember",
      "outputs": [
        {
          "internalType": "address",
          "name": "",
          "type": "address"
        }
      ],
      "stateMutability": "view",
      "type": "function",
      "constant": true
    },
    {
      "inputs": [
        {
          "internalType": "bytes32",
          "name": "role",
          "type": "bytes32"
        }
      ],
      "name": "getRoleMemberCount",
      "outputs": [
        {
          "internalType": "uint256",
          "name": "",
          "type": "uint256"
        }
      ],
      "stateMutability": "view",
      "type": "function",
      "constant": true
    },
    {
      "inputs": [
        {
          "internalType": "bytes32",
          "name": "role",
          "type": "bytes32"
        },
        {
          "internalType": "address",
          "name": "account",
          "type": "address"
        }
      ],
      "name": "grantRole",
      "outputs": [],
      "stateMutability": "nonpayable",
      "type": "function"
    },
    {
      "inputs": [
        {
          "internalType": "bytes32",
          "name": "role",
          "type": "bytes32"
        },
        {
          "internalType": "address",
          "name": "account",
          "type": "address"
        }
      ],
      "name": "hasRole",
      "outputs": [
        {
          "internalType": "bool",
          "name": "",
          "type": "bool"
        }
      ],
      "stateMutability": "view",
      "type": "function",
      "constant": true
    },
    {
      "inputs": [
        {
          "internalType": "address",
          "name": "owner",
          "type": "address"
        },
        {
          "internalType": "address",
          "name": "operator",
          "type": "address"
        }
      ],
      "name": "isApprovedForAll",
      "outputs": [
        {
          "internalType": "bool",
          "name": "",
          "type": "bool"
        }
      ],
      "stateMutability": "view",
      "type": "function",
      "constant": true
    },
    {
      "inputs": [],
      "name": "name",
      "outputs": [
        {
          "internalType": "string",
          "name": "",
          "type": "string"
        }
      ],
      "stateMutability": "view",
      "type": "function",
      "constant": true
    },
    {
      "inputs": [
        {
          "internalType": "uint256",
          "name": "tokenId",
          "type": "uint256"
        }
      ],
      "name": "ownerOf",
      "outputs": [
        {
          "internalType": "address",
          "name": "",
          "type": "address"
        }
      ],
      "stateMutability": "view",
      "type": "function",
      "constant": true
    },
    {
      "inputs": [],
      "name": "paused",
      "outputs": [
        {
          "internalType": "bool",
          "name": "",
          "type": "bool"
        }
      ],
      "stateMutability": "view",
      "type": "function",
      "constant": true
    },
    {
      "inputs": [
        {
          "internalType": "bytes32",
          "name": "role",
          "type": "bytes32"
        },
        {
          "internalType": "address",
          "name": "account",
          "type": "address"
        }
      ],
      "name": "renounceRole",
      "outputs": [],
      "stateMutability": "nonpayable",
      "type": "function"
    },
    {
      "inputs": [
        {
          "internalType": "bytes32",
          "name": "role",
          "type": "bytes32"
        },
        {
          "internalType": "address",
          "name": "account",
          "type": "address"
        }
      ],
      "name": "revokeRole",
      "outputs": [],
      "stateMutability": "nonpayable",
      "type": "function"
    },
    {
      "inputs": [
        {
          "internalType": "address",
          "name": "from",
          "type": "address"
        },
        {
          "internalType": "address",
          "name": "to",
          "type": "address"
        },
        {
          "internalType": "uint256",
          "name": "tokenId",
          "type": "uint256"
        }
      ],
      "name": "safeTransferFrom",
      "outputs": [],
      "stateMutability": "nonpayable",
      "type": "function"
    },
    {
      "inputs": [
        {
          "internalType": "address",
          "name": "from",
          "type": "address"
        },
        {
          "internalType": "address",
          "name": "to",
          "type": "address"
        },
        {
          "internalType": "uint256",
          "name": "tokenId",
          "type": "uint256"
        },
        {
          "internalType": "bytes",
          "name": "_data",
          "type": "bytes"
        }
      ],
      "name": "safeTransferFrom",
      "outputs": [],
      "stateMutability": "nonpayable",
      "type": "function"
    },
    {
      "inputs": [
        {
          "internalType": "address",
          "name": "operator",
          "type": "address"
        },
        {
          "internalType": "bool",
          "name": "approved",
          "type": "bool"
        }
      ],
      "name": "setApprovalForAll",
      "outputs": [],
      "stateMutability": "nonpayable",
      "type": "function"
    },
    {
      "inputs": [],
      "name": "symbol",
      "outputs": [
        {
          "internalType": "string",
          "name": "",
          "type": "string"
        }
      ],
      "stateMutability": "view",
      "type": "function",
      "constant": true
    },
    {
      "inputs": [
        {
          "internalType": "uint256",
          "name": "index",
          "type": "uint256"
        }
      ],
      "name": "tokenByIndex",
      "outputs": [
        {
          "internalType": "uint256",
          "name": "",
          "type": "uint256"
        }
      ],
      "stateMutability": "view",
      "type": "function",
      "constant": true
    },
    {
      "inputs": [
        {
          "internalType": "address",
          "name": "owner",
          "type": "address"
        },
        {
          "internalType": "uint256",
          "name": "index",
          "type": "uint256"
        }
      ],
      "name": "tokenOfOwnerByIndex",
      "outputs": [
        {
          "internalType": "uint256",
          "name": "",
          "type": "uint256"
        }
      ],
      "stateMutability": "view",
      "type": "function",
      "constant": true
    },
    {
      "inputs": [
        {
          "internalType": "uint256",
          "name": "tokenId",
          "type": "uint256"
        }
      ],
      "name": "tokenURI",
      "outputs": [
        {
          "internalType": "string",
          "name": "",
          "type": "string"
        }
      ],
      "stateMutability": "view",
      "type": "function",
      "constant": true
    },
    {
      "inputs": [],
      "name": "totalSupply",
      "outputs": [
        {
          "internalType": "uint256",
          "name": "",
          "type": "uint256"
        }
      ],
      "stateMutability": "view",
      "type": "function",
      "constant": true
    },
    {
      "inputs": [
        {
          "internalType": "address",
          "name": "from",
          "type": "address"
        },
        {
          "internalType": "address",
          "name": "to",
          "type": "address"
        },
        {
          "internalType": "uint256",
          "name": "tokenId",
          "type": "uint256"
        }
      ],
      "name": "transferFrom",
      "outputs": [],
      "stateMutability": "nonpayable",
      "type": "function"
    },
    {
      "inputs": [
        {
          "internalType": "address",
          "name": "to",
          "type": "address"
        }
      ],
      "name": "mint1",
      "outputs": [],
      "stateMutability": "nonpayable",
      "type": "function"
    },
    {
      "inputs": [
        {
          "internalType": "address",
          "name": "to",
          "type": "address"
        },
        {
          "internalType": "string",
          "name": "manufacturer",
          "type": "string"
        },
        {
          "internalType": "string",
          "name": "sn",
          "type": "string"
        },
        {
          "internalType": "string",
          "name": "manu_date",
          "type": "string"
        }
      ],
      "name": "mint",
      "outputs": [],
      "stateMutability": "nonpayable",
      "type": "function"
    },
    {
      "inputs": [],
      "name": "pause",
      "outputs": [],
      "stateMutability": "nonpayable",
      "type": "function"
    },
    {
      "inputs": [],
      "name": "unpause",
      "outputs": [],
      "stateMutability": "nonpayable",
      "type": "function"
    },
    {
      "inputs": [
        {
          "internalType": "bytes4",
          "name": "interfaceId",
          "type": "bytes4"
        }
      ],
      "name": "supportsInterface",
      "outputs": [
        {
          "internalType": "bool",
          "name": "",
          "type": "bool"
        }
      ],
      "stateMutability": "view",
      "type": "function",
      "constant": true
    }
  ],
  "bytecode": "0x60806040523480156200001157600080fd5b506040516200546838038062005468833981810160405281019062000037919062000633565b8282816002908051906020019062000051929190620003e6565b5080600390805190602001906200006a929190620003e6565b5050506000600c60006101000a81548160ff0219169083151502179055508060109080519060200190620000a0929190620003e6565b50620000c56000801b620000b96200015060201b60201c565b6200015860201b60201c565b620001067f9f2df0fed2c77648de5860a4cc508cd0818c85b8b8a1ab4ceeef8d981c8956a6620000fa6200015060201b60201c565b6200015860201b60201c565b620001477f65d7a28e3265b37a6474929f336521b332c1681b933f6cb9f3376673440d862a6200013b6200015060201b60201c565b6200015860201b60201c565b50505062000750565b600033905090565b6200016a82826200016e60201b60201c565b5050565b620001858282620001b660201b6200138e1760201c565b620001b18160016000858152602001908152602001600020620002a760201b6200146e1790919060201c565b505050565b620001c88282620002df60201b60201c565b620002a357600160008084815260200190815260200160002060000160008373ffffffffffffffffffffffffffffffffffffffff1673ffffffffffffffffffffffffffffffffffffffff16815260200190815260200160002060006101000a81548160ff021916908315150217905550620002486200015060201b60201c565b73ffffffffffffffffffffffffffffffffffffffff168173ffffffffffffffffffffffffffffffffffffffff16837f2f8788117e7eff1d82e926ec794901d17c78024a50270940304540a733656f0d60405160405180910390a45b5050565b6000620002d7836000018373ffffffffffffffffffffffffffffffffffffffff1660001b6200034960201b60201c565b905092915050565b600080600084815260200190815260200160002060000160008373ffffffffffffffffffffffffffffffffffffffff1673ffffffffffffffffffffffffffffffffffffffff16815260200190815260200160002060009054906101000a900460ff16905092915050565b60006200035d8383620003c360201b60201c565b620003b8578260000182908060018154018082558091505060019003906000526020600020016000909190919091505582600001805490508360010160008481526020019081526020016000208190555060019050620003bd565b600090505b92915050565b600080836001016000848152602001908152602001600020541415905092915050565b828054620003f4906200071b565b90600052602060002090601f01602090048101928262000418576000855562000464565b82601f106200043357805160ff191683800117855562000464565b8280016001018555821562000464579182015b828111156200046357825182559160200191906001019062000446565b5b50905062000473919062000477565b5090565b5b808211156200049257600081600090555060010162000478565b5090565b6000604051905090565b600080fd5b600080fd5b600080fd5b600080fd5b6000601f19601f8301169050919050565b7f4e487b7100000000000000000000000000000000000000000000000000000000600052604160045260246000fd5b620004ff82620004b4565b810181811067ffffffffffffffff82111715620005215762000520620004c5565b5b80604052505050565b60006200053662000496565b9050620005448282620004f4565b919050565b600067ffffffffffffffff821115620005675762000566620004c5565b5b6200057282620004b4565b9050602081019050919050565b60005b838110156200059f57808201518184015260208101905062000582565b83811115620005af576000848401525b50505050565b6000620005cc620005c68462000549565b6200052a565b905082815260208101848484011115620005eb57620005ea620004af565b5b620005f88482856200057f565b509392505050565b600082601f830112620006185762000617620004aa565b5b81516200062a848260208601620005b5565b91505092915050565b6000806000606084860312156200064f576200064e620004a0565b5b600084015167ffffffffffffffff81111562000670576200066f620004a5565b5b6200067e8682870162000600565b935050602084015167ffffffffffffffff811115620006a257620006a1620004a5565b5b620006b08682870162000600565b925050604084015167ffffffffffffffff811115620006d457620006d3620004a5565b5b620006e28682870162000600565b9150509250925092565b7f4e487b7100000000000000000000000000000000000000000000000000000000600052602260045260246000fd5b600060028204905060018216806200073457607f821691505b6020821081036200074a5762000749620006ec565b5b50919050565b614d0880620007606000396000f3fe608060405234801561001057600080fd5b50600436106101f05760003560e01c80635c975abb1161010f578063a22cb465116100a2578063d539139311610071578063d5391393146105c7578063d547741f146105e5578063e63ab1e914610601578063e985e9c51461061f576101f0565b8063a22cb4651461052f578063b88d4fde1461054b578063c87b56dd14610567578063ca15c87314610597576101f0565b80639010d07c116100de5780639010d07c1461049357806391d14854146104c357806395d89b41146104f3578063a217fddf14610511576101f0565b80635c975abb1461040b5780636352211e1461042957806370a08231146104595780638456cb5914610489576101f0565b80632f2ff15d1161018757806342842e0e1161015657806342842e0e1461038757806342966c68146103a35780634a0706be146103bf5780634f6ccce7146103db576101f0565b80632f2ff15d146103155780632f745c591461033157806336568abe146103615780633f4ba83a1461037d576101f0565b806318160ddd116101c357806318160ddd1461028f57806323b872dd146102ad578063248a9ca3146102c9578063292ba619146102f9576101f0565b806301ffc9a7146101f557806306fdde0314610225578063081812fc14610243578063095ea7b314610273575b600080fd5b61020f600480360381019061020a919061319d565b61064f565b60405161021c91906131e5565b60405180910390f35b61022d610661565b60405161023a9190613299565b60405180910390f35b61025d600480360381019061025891906132f1565b6106f3565b60405161026a919061335f565b60405180910390f35b61028d600480360381019061028891906133a6565b610778565b005b61029761088f565b6040516102a491906133f5565b60405180910390f35b6102c760048036038101906102c29190613410565b61089c565b005b6102e360048036038101906102de9190613499565b6108fc565b6040516102f091906134d5565b60405180910390f35b610313600480360381019061030e91906134f0565b61091b565b005b61032f600480360381019061032a919061351d565b6109ab565b005b61034b600480360381019061034691906133a6565b6109cc565b60405161035891906133f5565b60405180910390f35b61037b6004803603810190610376919061351d565b610a71565b005b610385610af4565b005b6103a1600480360381019061039c9190613410565b610b6e565b005b6103bd60048036038101906103b891906132f1565b610b8e565b005b6103d960048036038101906103d49190613692565b610bea565b005b6103f560048036038101906103f091906132f1565b610db2565b60405161040291906133f5565b60405180910390f35b610413610e23565b60405161042091906131e5565b60405180910390f35b610443600480360381019061043e91906132f1565b610e3a565b604051610450919061335f565b60405180910390f35b610473600480360381019061046e91906134f0565b610eeb565b60405161048091906133f5565b60405180910390f35b610491610fa2565b005b6104ad60048036038101906104a8919061374d565b61101c565b6040516104ba919061335f565b60405180910390f35b6104dd60048036038101906104d8919061351d565b61104b565b6040516104ea91906131e5565b60405180910390f35b6104fb6110b5565b6040516105089190613299565b60405180910390f35b610519611147565b60405161052691906134d5565b60405180910390f35b610549600480360381019061054491906137b9565b61114e565b005b6105656004803603810190610560919061389a565b611164565b005b610581600480360381019061057c91906132f1565b6111c6565b60405161058e9190613299565b60405180910390f35b6105b160048036038101906105ac9190613499565b61126d565b6040516105be91906133f5565b60405180910390f35b6105cf611291565b6040516105dc91906134d5565b60405180910390f35b6105ff60048036038101906105fa919061351d565b6112b5565b005b6106096112d6565b60405161061691906134d5565b60405180910390f35b6106396004803603810190610634919061391d565b6112fa565b60405161064691906131e5565b60405180910390f35b600061065a8261149e565b9050919050565b6060600280546106709061398c565b80601f016020809104026020016040519081016040528092919081815260200182805461069c9061398c565b80156106e95780601f106106be576101008083540402835291602001916106e9565b820191906000526020600020905b8154815290600101906020018083116106cc57829003601f168201915b5050505050905090565b60006106fe82611518565b61073d576040517f08c379a000000000000000000000000000000000000000000000000000000000815260040161073490613a2f565b60405180910390fd5b6006600083815260200190815260200160002060009054906101000a900473ffffffffffffffffffffffffffffffffffffffff169050919050565b600061078382610e3a565b90508073ffffffffffffffffffffffffffffffffffffffff168373ffffffffffffffffffffffffffffffffffffffff16036107f3576040517f08c379a00000000000000000000000000000000000000000000000000000000081526004016107ea90613ac1565b60405180910390fd5b8073ffffffffffffffffffffffffffffffffffffffff16610812611584565b73ffffffffffffffffffffffffffffffffffffffff16148061084157506108408161083b611584565b6112fa565b5b610880576040517f08c379a000000000000000000000000000000000000000000000000000000000815260040161087790613b53565b60405180910390fd5b61088a838361158c565b505050565b6000600a80549050905090565b6108ad6108a7611584565b82611645565b6108ec576040517f08c379a00000000000000000000000000000000000000000000000000000000081526004016108e390613be5565b60405180910390fd5b6108f7838383611723565b505050565b6000806000838152602001908152602001600020600101549050919050565b61094c7f9f2df0fed2c77648de5860a4cc508cd0818c85b8b8a1ab4ceeef8d981c8956a6610947611584565b61104b565b61098b576040517f08c379a000000000000000000000000000000000000000000000000000000000815260040161098290613c77565b60405180910390fd5b61099e81610999600f611989565b611997565b6109a8600f611b70565b50565b6109b4826108fc565b6109bd81611b86565b6109c78383611b9a565b505050565b60006109d783610eeb565b8210610a18576040517f08c379a0000000000000000000000000000000000000000000000000000000008152600401610a0f90613d09565b60405180910390fd5b600860008473ffffffffffffffffffffffffffffffffffffffff1673ffffffffffffffffffffffffffffffffffffffff168152602001908152602001600020600083815260200190815260200160002054905092915050565b610a79611584565b73ffffffffffffffffffffffffffffffffffffffff168173ffffffffffffffffffffffffffffffffffffffff1614610ae6576040517f08c379a0000000000000000000000000000000000000000000000000000000008152600401610add90613d9b565b60405180910390fd5b610af08282611bce565b5050565b610b257f65d7a28e3265b37a6474929f336521b332c1681b933f6cb9f3376673440d862a610b20611584565b61104b565b610b64576040517f08c379a0000000000000000000000000000000000000000000000000000000008152600401610b5b90613e2d565b60405180910390fd5b610b6c611c02565b565b610b8983838360405180602001604052806000815250611164565b505050565b610b9f610b99611584565b82611645565b610bde576040517f08c379a0000000000000000000000000000000000000000000000000000000008152600401610bd590613ebf565b60405180910390fd5b610be781611ca4565b50565b610c1b7f9f2df0fed2c77648de5860a4cc508cd0818c85b8b8a1ab4ceeef8d981c8956a6610c16611584565b61104b565b610c5a576040517f08c379a0000000000000000000000000000000000000000000000000000000008152600401610c5190613f51565b60405180910390fd5b6000838383604051602001610c7193929190613fad565b6040516020818303038152906040528051906020012090506000610c95600f611989565b905060008114610cf6576000600e60008481526020019081526020016000205414610cf5576040517f08c379a0000000000000000000000000000000000000000000000000000000008152600401610cec9061402a565b60405180910390fd5b5b80600e600084815260200190815260200160002081905550604051806060016040528086815260200185815260200184815250600d60008381526020019081526020016000206000820151816000019080519060200190610d5892919061308e565b506020820151816001019080519060200190610d7592919061308e565b506040820151816002019080519060200190610d9292919061308e565b50905050610da08682611997565b610daa600f611b70565b505050505050565b6000610dbc61088f565b8210610dfd576040517f08c379a0000000000000000000000000000000000000000000000000000000008152600401610df4906140bc565b60405180910390fd5b600a8281548110610e1157610e106140dc565b5b90600052602060002001549050919050565b6000600c60009054906101000a900460ff16905090565b6000806004600084815260200190815260200160002060009054906101000a900473ffffffffffffffffffffffffffffffffffffffff169050600073ffffffffffffffffffffffffffffffffffffffff168173ffffffffffffffffffffffffffffffffffffffff1603610ee2576040517f08c379a0000000000000000000000000000000000000000000000000000000008152600401610ed99061417d565b60405180910390fd5b80915050919050565b60008073ffffffffffffffffffffffffffffffffffffffff168273ffffffffffffffffffffffffffffffffffffffff1603610f5b576040517f08c379a0000000000000000000000000000000000000000000000000000000008152600401610f529061420f565b60405180910390fd5b600560008373ffffffffffffffffffffffffffffffffffffffff1673ffffffffffffffffffffffffffffffffffffffff168152602001908152602001600020549050919050565b610fd37f65d7a28e3265b37a6474929f336521b332c1681b933f6cb9f3376673440d862a610fce611584565b61104b565b611012576040517f08c379a0000000000000000000000000000000000000000000000000000000008152600401611009906142a1565b60405180910390fd5b61101a611dc1565b565b60006110438260016000868152602001908152602001600020611e6490919063ffffffff16565b905092915050565b600080600084815260200190815260200160002060000160008373ffffffffffffffffffffffffffffffffffffffff1673ffffffffffffffffffffffffffffffffffffffff16815260200190815260200160002060009054906101000a900460ff16905092915050565b6060600380546110c49061398c565b80601f01602080910402602001604051908101604052809291908181526020018280546110f09061398c565b801561113d5780601f106111125761010080835404028352916020019161113d565b820191906000526020600020905b81548152906001019060200180831161112057829003601f168201915b5050505050905090565b6000801b81565b611160611159611584565b8383611e7e565b5050565b61117561116f611584565b83611645565b6111b4576040517f08c379a00000000000000000000000000000000000000000000000000000000081526004016111ab90613be5565b60405180910390fd5b6111c084848484611fea565b50505050565b60606111d182611518565b611210576040517f08c379a000000000000000000000000000000000000000000000000000000000815260040161120790614333565b60405180910390fd5b600061121a612046565b9050600081511161123a5760405180602001604052806000815250611265565b80611244846120d8565b604051602001611255929190614353565b6040516020818303038152906040525b915050919050565b600061128a60016000848152602001908152602001600020612238565b9050919050565b7f9f2df0fed2c77648de5860a4cc508cd0818c85b8b8a1ab4ceeef8d981c8956a681565b6112be826108fc565b6112c781611b86565b6112d18383611bce565b505050565b7f65d7a28e3265b37a6474929f336521b332c1681b933f6cb9f3376673440d862a81565b6000600760008473ffffffffffffffffffffffffffffffffffffffff1673ffffffffffffffffffffffffffffffffffffffff16815260200190815260200160002060008373ffffffffffffffffffffffffffffffffffffffff1673ffffffffffffffffffffffffffffffffffffffff16815260200190815260200160002060009054906101000a900460ff16905092915050565b611398828261104b565b61146a57600160008084815260200190815260200160002060000160008373ffffffffffffffffffffffffffffffffffffffff1673ffffffffffffffffffffffffffffffffffffffff16815260200190815260200160002060006101000a81548160ff02191690831515021790555061140f611584565b73ffffffffffffffffffffffffffffffffffffffff168173ffffffffffffffffffffffffffffffffffffffff16837f2f8788117e7eff1d82e926ec794901d17c78024a50270940304540a733656f0d60405160405180910390a45b5050565b6000611496836000018373ffffffffffffffffffffffffffffffffffffffff1660001b61224d565b905092915050565b60007f780e9d63000000000000000000000000000000000000000000000000000000007bffffffffffffffffffffffffffffffffffffffffffffffffffffffff1916827bffffffffffffffffffffffffffffffffffffffffffffffffffffffff191614806115115750611510826122bd565b5b9050919050565b60008073ffffffffffffffffffffffffffffffffffffffff166004600084815260200190815260200160002060009054906101000a900473ffffffffffffffffffffffffffffffffffffffff1673ffffffffffffffffffffffffffffffffffffffff1614159050919050565b600033905090565b816006600083815260200190815260200160002060006101000a81548173ffffffffffffffffffffffffffffffffffffffff021916908373ffffffffffffffffffffffffffffffffffffffff160217905550808273ffffffffffffffffffffffffffffffffffffffff166115ff83610e3a565b73ffffffffffffffffffffffffffffffffffffffff167f8c5be1e5ebec7d5bd14f71427d1e84f3dd0314c0f7b2291e5b200ac8c7c3b92560405160405180910390a45050565b600061165082611518565b61168f576040517f08c379a0000000000000000000000000000000000000000000000000000000008152600401611686906143e9565b60405180910390fd5b600061169a83610e3a565b90508073ffffffffffffffffffffffffffffffffffffffff168473ffffffffffffffffffffffffffffffffffffffff1614806116dc57506116db81856112fa565b5b8061171a57508373ffffffffffffffffffffffffffffffffffffffff16611702846106f3565b73ffffffffffffffffffffffffffffffffffffffff16145b91505092915050565b8273ffffffffffffffffffffffffffffffffffffffff1661174382610e3a565b73ffffffffffffffffffffffffffffffffffffffff1614611799576040517f08c379a00000000000000000000000000000000000000000000000000000000081526004016117909061447b565b60405180910390fd5b600073ffffffffffffffffffffffffffffffffffffffff168273ffffffffffffffffffffffffffffffffffffffff1603611808576040517f08c379a00000000000000000000000000000000000000000000000000000000081526004016117ff9061450d565b60405180910390fd5b61181383838361239f565b61181e60008261158c565b6001600560008573ffffffffffffffffffffffffffffffffffffffff1673ffffffffffffffffffffffffffffffffffffffff168152602001908152602001600020600082825461186e919061455c565b925050819055506001600560008473ffffffffffffffffffffffffffffffffffffffff1673ffffffffffffffffffffffffffffffffffffffff16815260200190815260200160002060008282546118c59190614590565b92505081905550816004600083815260200190815260200160002060006101000a81548173ffffffffffffffffffffffffffffffffffffffff021916908373ffffffffffffffffffffffffffffffffffffffff160217905550808273ffffffffffffffffffffffffffffffffffffffff168473ffffffffffffffffffffffffffffffffffffffff167fddf252ad1be2c89b69c2b068fc378daa952ba7f163c4a11628f55a4df523b3ef60405160405180910390a46119848383836123af565b505050565b600081600001549050919050565b600073ffffffffffffffffffffffffffffffffffffffff168273ffffffffffffffffffffffffffffffffffffffff1603611a06576040517f08c379a00000000000000000000000000000000000000000000000000000000081526004016119fd90614632565b60405180910390fd5b611a0f81611518565b15611a4f576040517f08c379a0000000000000000000000000000000000000000000000000000000008152600401611a469061469e565b60405180910390fd5b611a5b6000838361239f565b6001600560008473ffffffffffffffffffffffffffffffffffffffff1673ffffffffffffffffffffffffffffffffffffffff1681526020019081526020016000206000828254611aab9190614590565b92505081905550816004600083815260200190815260200160002060006101000a81548173ffffffffffffffffffffffffffffffffffffffff021916908373ffffffffffffffffffffffffffffffffffffffff160217905550808273ffffffffffffffffffffffffffffffffffffffff16600073ffffffffffffffffffffffffffffffffffffffff167fddf252ad1be2c89b69c2b068fc378daa952ba7f163c4a11628f55a4df523b3ef60405160405180910390a4611b6c600083836123af565b5050565b6001816000016000828254019250508190555050565b611b9781611b92611584565b6123b4565b50565b611ba4828261138e565b611bc9816001600085815260200190815260200160002061146e90919063ffffffff16565b505050565b611bd88282612451565b611bfd816001600085815260200190815260200160002061253290919063ffffffff16565b505050565b611c0a610e23565b611c49576040517f08c379a0000000000000000000000000000000000000000000000000000000008152600401611c409061470a565b60405180910390fd5b6000600c60006101000a81548160ff0219169083151502179055507f5db9ee0a495bf2e6ff9c91a7834c1ba4fdd244a5e8aa4e537bd38aeae4b073aa611c8d611584565b604051611c9a919061335f565b60405180910390a1565b6000611caf82610e3a565b9050611cbd8160008461239f565b611cc860008361158c565b6001600560008373ffffffffffffffffffffffffffffffffffffffff1673ffffffffffffffffffffffffffffffffffffffff1681526020019081526020016000206000828254611d18919061455c565b925050819055506004600083815260200190815260200160002060006101000a81549073ffffffffffffffffffffffffffffffffffffffff021916905581600073ffffffffffffffffffffffffffffffffffffffff168273ffffffffffffffffffffffffffffffffffffffff167fddf252ad1be2c89b69c2b068fc378daa952ba7f163c4a11628f55a4df523b3ef60405160405180910390a4611dbd816000846123af565b5050565b611dc9610e23565b15611e09576040517f08c379a0000000000000000000000000000000000000000000000000000000008152600401611e0090614776565b60405180910390fd5b6001600c60006101000a81548160ff0219169083151502179055507f62e78cea01bee320cd4e420270b5ea74000d11b0c9f74754ebdbfc544b05a258611e4d611584565b604051611e5a919061335f565b60405180910390a1565b6000611e738360000183612562565b60001c905092915050565b8173ffffffffffffffffffffffffffffffffffffffff168373ffffffffffffffffffffffffffffffffffffffff1603611eec576040517f08c379a0000000000000000000000000000000000000000000000000000000008152600401611ee3906147e2565b60405180910390fd5b80600760008573ffffffffffffffffffffffffffffffffffffffff1673ffffffffffffffffffffffffffffffffffffffff16815260200190815260200160002060008473ffffffffffffffffffffffffffffffffffffffff1673ffffffffffffffffffffffffffffffffffffffff16815260200190815260200160002060006101000a81548160ff0219169083151502179055508173ffffffffffffffffffffffffffffffffffffffff168373ffffffffffffffffffffffffffffffffffffffff167f17307eab39ab6107e8899845ad3d59bd9653f200f220920489ca2b5937696c3183604051611fdd91906131e5565b60405180910390a3505050565b611ff5848484611723565b6120018484848461258d565b612040576040517f08c379a000000000000000000000000000000000000000000000000000000000815260040161203790614874565b60405180910390fd5b50505050565b6060601080546120559061398c565b80601f01602080910402602001604051908101604052809291908181526020018280546120819061398c565b80156120ce5780601f106120a3576101008083540402835291602001916120ce565b820191906000526020600020905b8154815290600101906020018083116120b157829003601f168201915b5050505050905090565b60606000820361211f576040518060400160405280600181526020017f30000000000000000000000000000000000000000000000000000000000000008152509050612233565b600082905060005b6000821461215157808061213a90614894565b915050600a8261214a919061490b565b9150612127565b60008167ffffffffffffffff81111561216d5761216c613567565b5b6040519080825280601f01601f19166020018201604052801561219f5781602001600182028036833780820191505090505b5090505b6000851461222c576001826121b8919061455c565b9150600a856121c7919061493c565b60306121d39190614590565b60f81b8183815181106121e9576121e86140dc565b5b60200101907effffffffffffffffffffffffffffffffffffffffffffffffffffffffffffff1916908160001a905350600a85612225919061490b565b94506121a3565b8093505050505b919050565b600061224682600001612714565b9050919050565b60006122598383612725565b6122b25782600001829080600181540180825580915050600190039060005260206000200160009091909190915055826000018054905083600101600084815260200190815260200160002081905550600190506122b7565b600090505b92915050565b60007f80ac58cd000000000000000000000000000000000000000000000000000000007bffffffffffffffffffffffffffffffffffffffffffffffffffffffff1916827bffffffffffffffffffffffffffffffffffffffffffffffffffffffff1916148061238857507f5b5e139f000000000000000000000000000000000000000000000000000000007bffffffffffffffffffffffffffffffffffffffffffffffffffffffff1916827bffffffffffffffffffffffffffffffffffffffffffffffffffffffff1916145b80612398575061239782612748565b5b9050919050565b6123aa8383836127c2565b505050565b505050565b6123be828261104b565b61244d576123e38173ffffffffffffffffffffffffffffffffffffffff16601461281a565b6123f18360001c602061281a565b604051602001612402929190614a05565b6040516020818303038152906040526040517f08c379a00000000000000000000000000000000000000000000000000000000081526004016124449190613299565b60405180910390fd5b5050565b61245b828261104b565b1561252e57600080600084815260200190815260200160002060000160008373ffffffffffffffffffffffffffffffffffffffff1673ffffffffffffffffffffffffffffffffffffffff16815260200190815260200160002060006101000a81548160ff0219169083151502179055506124d3611584565b73ffffffffffffffffffffffffffffffffffffffff168173ffffffffffffffffffffffffffffffffffffffff16837ff6391f5c32d9c69d2a47ea670b442974b53935d1edc7fd64eb21e047a839171b60405160405180910390a45b5050565b600061255a836000018373ffffffffffffffffffffffffffffffffffffffff1660001b612a56565b905092915050565b600082600001828154811061257a576125796140dc565b5b9060005260206000200154905092915050565b60006125ae8473ffffffffffffffffffffffffffffffffffffffff16612b6a565b15612707578373ffffffffffffffffffffffffffffffffffffffff1663150b7a026125d7611584565b8786866040518563ffffffff1660e01b81526004016125f99493929190614a94565b6020604051808303816000875af192505050801561263557506040513d601f19601f820116820180604052508101906126329190614af5565b60015b6126b7573d8060008114612665576040519150601f19603f3d011682016040523d82523d6000602084013e61266a565b606091505b5060008151036126af576040517f08c379a00000000000000000000000000000000000000000000000000000000081526004016126a690614874565b60405180910390fd5b805181602001fd5b63150b7a0260e01b7bffffffffffffffffffffffffffffffffffffffffffffffffffffffff1916817bffffffffffffffffffffffffffffffffffffffffffffffffffffffff19161491505061270c565b600190505b949350505050565b600081600001805490509050919050565b600080836001016000848152602001908152602001600020541415905092915050565b60007f5a05180f000000000000000000000000000000000000000000000000000000007bffffffffffffffffffffffffffffffffffffffffffffffffffffffff1916827bffffffffffffffffffffffffffffffffffffffffffffffffffffffff191614806127bb57506127ba82612b8d565b5b9050919050565b6127cd838383612c07565b6127d5610e23565b15612815576040517f08c379a000000000000000000000000000000000000000000000000000000000815260040161280c90614b94565b60405180910390fd5b505050565b60606000600283600261282d9190614bb4565b6128379190614590565b67ffffffffffffffff8111156128505761284f613567565b5b6040519080825280601f01601f1916602001820160405280156128825781602001600182028036833780820191505090505b5090507f3000000000000000000000000000000000000000000000000000000000000000816000815181106128ba576128b96140dc565b5b60200101907effffffffffffffffffffffffffffffffffffffffffffffffffffffffffffff1916908160001a9053507f78000000000000000000000000000000000000000000000000000000000000008160018151811061291e5761291d6140dc565b5b60200101907effffffffffffffffffffffffffffffffffffffffffffffffffffffffffffff1916908160001a9053506000600184600261295e9190614bb4565b6129689190614590565b90505b6001811115612a08577f3031323334353637383961626364656600000000000000000000000000000000600f8616601081106129aa576129a96140dc565b5b1a60f81b8282815181106129c1576129c06140dc565b5b60200101907effffffffffffffffffffffffffffffffffffffffffffffffffffffffffffff1916908160001a905350600485901c945080612a0190614c0e565b905061296b565b5060008414612a4c576040517f08c379a0000000000000000000000000000000000000000000000000000000008152600401612a4390614c83565b60405180910390fd5b8091505092915050565b60008083600101600084815260200190815260200160002054905060008114612b5e576000600182612a88919061455c565b9050600060018660000180549050612aa0919061455c565b9050818114612b0f576000866000018281548110612ac157612ac06140dc565b5b9060005260206000200154905080876000018481548110612ae557612ae46140dc565b5b90600052602060002001819055508387600101600083815260200190815260200160002081905550505b85600001805480612b2357612b22614ca3565b5b600190038181906000526020600020016000905590558560010160008681526020019081526020016000206000905560019350505050612b64565b60009150505b92915050565b6000808273ffffffffffffffffffffffffffffffffffffffff163b119050919050565b60007f7965db0b000000000000000000000000000000000000000000000000000000007bffffffffffffffffffffffffffffffffffffffffffffffffffffffff1916827bffffffffffffffffffffffffffffffffffffffffffffffffffffffff19161480612c005750612bff82612d19565b5b9050919050565b612c12838383612d83565b600073ffffffffffffffffffffffffffffffffffffffff168373ffffffffffffffffffffffffffffffffffffffff1603612c5457612c4f81612d88565b612c93565b8173ffffffffffffffffffffffffffffffffffffffff168373ffffffffffffffffffffffffffffffffffffffff1614612c9257612c918382612dd1565b5b5b600073ffffffffffffffffffffffffffffffffffffffff168273ffffffffffffffffffffffffffffffffffffffff1603612cd557612cd081612f3e565b612d14565b8273ffffffffffffffffffffffffffffffffffffffff168273ffffffffffffffffffffffffffffffffffffffff1614612d1357612d12828261300f565b5b5b505050565b60007f01ffc9a7000000000000000000000000000000000000000000000000000000007bffffffffffffffffffffffffffffffffffffffffffffffffffffffff1916827bffffffffffffffffffffffffffffffffffffffffffffffffffffffff1916149050919050565b505050565b600a80549050600b600083815260200190815260200160002081905550600a81908060018154018082558091505060019003906000526020600020016000909190919091505550565b60006001612dde84610eeb565b612de8919061455c565b9050600060096000848152602001908152602001600020549050818114612ecd576000600860008673ffffffffffffffffffffffffffffffffffffffff1673ffffffffffffffffffffffffffffffffffffffff168152602001908152602001600020600084815260200190815260200160002054905080600860008773ffffffffffffffffffffffffffffffffffffffff1673ffffffffffffffffffffffffffffffffffffffff168152602001908152602001600020600084815260200190815260200160002081905550816009600083815260200190815260200160002081905550505b6009600084815260200190815260200160002060009055600860008573ffffffffffffffffffffffffffffffffffffffff1673ffffffffffffffffffffffffffffffffffffffff16815260200190815260200160002060008381526020019081526020016000206000905550505050565b60006001600a80549050612f52919061455c565b90506000600b60008481526020019081526020016000205490506000600a8381548110612f8257612f816140dc565b5b9060005260206000200154905080600a8381548110612fa457612fa36140dc565b5b906000526020600020018190555081600b600083815260200190815260200160002081905550600b600085815260200190815260200160002060009055600a805480612ff357612ff2614ca3565b5b6001900381819060005260206000200160009055905550505050565b600061301a83610eeb565b905081600860008573ffffffffffffffffffffffffffffffffffffffff1673ffffffffffffffffffffffffffffffffffffffff168152602001908152602001600020600083815260200190815260200160002081905550806009600084815260200190815260200160002081905550505050565b82805461309a9061398c565b90600052602060002090601f0160209004810192826130bc5760008555613103565b82601f106130d557805160ff1916838001178555613103565b82800160010185558215613103579182015b828111156131025782518255916020019190600101906130e7565b5b5090506131109190613114565b5090565b5b8082111561312d576000816000905550600101613115565b5090565b6000604051905090565b600080fd5b600080fd5b60007fffffffff0000000000000000000000000000000000000000000000000000000082169050919050565b61317a81613145565b811461318557600080fd5b50565b60008135905061319781613171565b92915050565b6000602082840312156131b3576131b261313b565b5b60006131c184828501613188565b91505092915050565b60008115159050919050565b6131df816131ca565b82525050565b60006020820190506131fa60008301846131d6565b92915050565b600081519050919050565b600082825260208201905092915050565b60005b8381101561323a57808201518184015260208101905061321f565b83811115613249576000848401525b50505050565b6000601f19601f8301169050919050565b600061326b82613200565b613275818561320b565b935061328581856020860161321c565b61328e8161324f565b840191505092915050565b600060208201905081810360008301526132b38184613260565b905092915050565b6000819050919050565b6132ce816132bb565b81146132d957600080fd5b50565b6000813590506132eb816132c5565b92915050565b6000602082840312156133075761330661313b565b5b6000613315848285016132dc565b91505092915050565b600073ffffffffffffffffffffffffffffffffffffffff82169050919050565b60006133498261331e565b9050919050565b6133598161333e565b82525050565b60006020820190506133746000830184613350565b92915050565b6133838161333e565b811461338e57600080fd5b50565b6000813590506133a08161337a565b92915050565b600080604083850312156133bd576133bc61313b565b5b60006133cb85828601613391565b92505060206133dc858286016132dc565b9150509250929050565b6133ef816132bb565b82525050565b600060208201905061340a60008301846133e6565b92915050565b6000806000606084860312156134295761342861313b565b5b600061343786828701613391565b935050602061344886828701613391565b9250506040613459868287016132dc565b9150509250925092565b6000819050919050565b61347681613463565b811461348157600080fd5b50565b6000813590506134938161346d565b92915050565b6000602082840312156134af576134ae61313b565b5b60006134bd84828501613484565b91505092915050565b6134cf81613463565b82525050565b60006020820190506134ea60008301846134c6565b92915050565b6000602082840312156135065761350561313b565b5b600061351484828501613391565b91505092915050565b600080604083850312156135345761353361313b565b5b600061354285828601613484565b925050602061355385828601613391565b9150509250929050565b600080fd5b600080fd5b7f4e487b7100000000000000000000000000000000000000000000000000000000600052604160045260246000fd5b61359f8261324f565b810181811067ffffffffffffffff821117156135be576135bd613567565b5b80604052505050565b60006135d1613131565b90506135dd8282613596565b919050565b600067ffffffffffffffff8211156135fd576135fc613567565b5b6136068261324f565b9050602081019050919050565b82818337600083830152505050565b6000613635613630846135e2565b6135c7565b90508281526020810184848401111561365157613650613562565b5b61365c848285613613565b509392505050565b600082601f8301126136795761367861355d565b5b8135613689848260208601613622565b91505092915050565b600080600080608085870312156136ac576136ab61313b565b5b60006136ba87828801613391565b945050602085013567ffffffffffffffff8111156136db576136da613140565b5b6136e787828801613664565b935050604085013567ffffffffffffffff81111561370857613707613140565b5b61371487828801613664565b925050606085013567ffffffffffffffff81111561373557613734613140565b5b61374187828801613664565b91505092959194509250565b600080604083850312156137645761376361313b565b5b600061377285828601613484565b9250506020613783858286016132dc565b9150509250929050565b613796816131ca565b81146137a157600080fd5b50565b6000813590506137b38161378d565b92915050565b600080604083850312156137d0576137cf61313b565b5b60006137de85828601613391565b92505060206137ef858286016137a4565b9150509250929050565b600067ffffffffffffffff82111561381457613813613567565b5b61381d8261324f565b9050602081019050919050565b600061383d613838846137f9565b6135c7565b90508281526020810184848401111561385957613858613562565b5b613864848285613613565b509392505050565b600082601f8301126138815761388061355d565b5b813561389184826020860161382a565b91505092915050565b600080600080608085870312156138b4576138b361313b565b5b60006138c287828801613391565b94505060206138d387828801613391565b93505060406138e4878288016132dc565b925050606085013567ffffffffffffffff81111561390557613904613140565b5b6139118782880161386c565b91505092959194509250565b600080604083850312156139345761393361313b565b5b600061394285828601613391565b925050602061395385828601613391565b9150509250929050565b7f4e487b7100000000000000000000000000000000000000000000000000000000600052602260045260246000fd5b600060028204905060018216806139a457607f821691505b6020821081036139b7576139b661395d565b5b50919050565b7f4552433732313a20617070726f76656420717565727920666f72206e6f6e657860008201527f697374656e7420746f6b656e0000000000000000000000000000000000000000602082015250565b6000613a19602c8361320b565b9150613a24826139bd565b604082019050919050565b60006020820190508181036000830152613a4881613a0c565b9050919050565b7f4552433732313a20617070726f76616c20746f2063757272656e74206f776e6560008201527f7200000000000000000000000000000000000000000000000000000000000000602082015250565b6000613aab60218361320b565b9150613ab682613a4f565b604082019050919050565b60006020820190508181036000830152613ada81613a9e565b9050919050565b7f4552433732313a20617070726f76652063616c6c6572206973206e6f74206f7760008201527f6e6572206e6f7220617070726f76656420666f7220616c6c0000000000000000602082015250565b6000613b3d60388361320b565b9150613b4882613ae1565b604082019050919050565b60006020820190508181036000830152613b6c81613b30565b9050919050565b7f4552433732313a207472616e736665722063616c6c6572206973206e6f74206f60008201527f776e6572206e6f7220617070726f766564000000000000000000000000000000602082015250565b6000613bcf60318361320b565b9150613bda82613b73565b604082019050919050565b60006020820190508181036000830152613bfe81613bc2565b9050919050565b7f4552433732315072657365744d696e7465725061757365724175746f49643a2060008201527f6d7573742068617665206d696e74657220726f6c6520746f206d696e74000000602082015250565b6000613c61603d8361320b565b9150613c6c82613c05565b604082019050919050565b60006020820190508181036000830152613c9081613c54565b9050919050565b7f455243373231456e756d657261626c653a206f776e657220696e646578206f7560008201527f74206f6620626f756e6473000000000000000000000000000000000000000000602082015250565b6000613cf3602b8361320b565b9150613cfe82613c97565b604082019050919050565b60006020820190508181036000830152613d2281613ce6565b9050919050565b7f416363657373436f6e74726f6c3a2063616e206f6e6c792072656e6f756e636560008201527f20726f6c657320666f722073656c660000000000000000000000000000000000602082015250565b6000613d85602f8361320b565b9150613d9082613d29565b604082019050919050565b60006020820190508181036000830152613db481613d78565b9050919050565b7f4552433732315072657365744d696e7465725061757365724175746f49643a2060008201527f6d75737420686176652070617573657220726f6c6520746f20756e7061757365602082015250565b6000613e1760408361320b565b9150613e2282613dbb565b604082019050919050565b60006020820190508181036000830152613e4681613e0a565b9050919050565b7f4552433732314275726e61626c653a2063616c6c6572206973206e6f74206f7760008201527f6e6572206e6f7220617070726f76656400000000000000000000000000000000602082015250565b6000613ea960308361320b565b9150613eb482613e4d565b604082019050919050565b60006020820190508181036000830152613ed881613e9c565b9050919050565b7f5365727665724e66743a206d7573742068617665206d696e74657220726f6c6560008201527f20746f206d696e74000000000000000000000000000000000000000000000000602082015250565b6000613f3b60288361320b565b9150613f4682613edf565b604082019050919050565b60006020820190508181036000830152613f6a81613f2e565b9050919050565b600081905092915050565b6000613f8782613200565b613f918185613f71565b9350613fa181856020860161321c565b80840191505092915050565b6000613fb98286613f7c565b9150613fc58285613f7c565b9150613fd18284613f7c565b9150819050949350505050565b7f5468652073657276657220696420616c7265616479206578697374732e000000600082015250565b6000614014601d8361320b565b915061401f82613fde565b602082019050919050565b6000602082019050818103600083015261404381614007565b9050919050565b7f455243373231456e756d657261626c653a20676c6f62616c20696e646578206f60008201527f7574206f6620626f756e64730000000000000000000000000000000000000000602082015250565b60006140a6602c8361320b565b91506140b18261404a565b604082019050919050565b600060208201905081810360008301526140d581614099565b9050919050565b7f4e487b7100000000000000000000000000000000000000000000000000000000600052603260045260246000fd5b7f4552433732313a206f776e657220717565727920666f72206e6f6e657869737460008201527f656e7420746f6b656e0000000000000000000000000000000000000000000000602082015250565b600061416760298361320b565b91506141728261410b565b604082019050919050565b600060208201905081810360008301526141968161415a565b9050919050565b7f4552433732313a2062616c616e636520717565727920666f7220746865207a6560008201527f726f206164647265737300000000000000000000000000000000000000000000602082015250565b60006141f9602a8361320b565b91506142048261419d565b604082019050919050565b60006020820190508181036000830152614228816141ec565b9050919050565b7f4552433732315072657365744d696e7465725061757365724175746f49643a2060008201527f6d75737420686176652070617573657220726f6c6520746f2070617573650000602082015250565b600061428b603e8361320b565b91506142968261422f565b604082019050919050565b600060208201905081810360008301526142ba8161427e565b9050919050565b7f4552433732314d657461646174613a2055524920717565727920666f72206e6f60008201527f6e6578697374656e7420746f6b656e0000000000000000000000000000000000602082015250565b600061431d602f8361320b565b9150614328826142c1565b604082019050919050565b6000602082019050818103600083015261434c81614310565b9050919050565b600061435f8285613f7c565b915061436b8284613f7c565b91508190509392505050565b7f4552433732313a206f70657261746f7220717565727920666f72206e6f6e657860008201527f697374656e7420746f6b656e0000000000000000000000000000000000000000602082015250565b60006143d3602c8361320b565b91506143de82614377565b604082019050919050565b60006020820190508181036000830152614402816143c6565b9050919050565b7f4552433732313a207472616e736665722066726f6d20696e636f72726563742060008201527f6f776e6572000000000000000000000000000000000000000000000000000000602082015250565b600061446560258361320b565b915061447082614409565b604082019050919050565b6000602082019050818103600083015261449481614458565b9050919050565b7f4552433732313a207472616e7366657220746f20746865207a65726f2061646460008201527f7265737300000000000000000000000000000000000000000000000000000000602082015250565b60006144f760248361320b565b91506145028261449b565b604082019050919050565b60006020820190508181036000830152614526816144ea565b9050919050565b7f4e487b7100000000000000000000000000000000000000000000000000000000600052601160045260246000fd5b6000614567826132bb565b9150614572836132bb565b9250828210156145855761458461452d565b5b828203905092915050565b600061459b826132bb565b91506145a6836132bb565b9250827fffffffffffffffffffffffffffffffffffffffffffffffffffffffffffffffff038211156145db576145da61452d565b5b828201905092915050565b7f4552433732313a206d696e7420746f20746865207a65726f2061646472657373600082015250565b600061461c60208361320b565b9150614627826145e6565b602082019050919050565b6000602082019050818103600083015261464b8161460f565b9050919050565b7f4552433732313a20746f6b656e20616c7265616479206d696e74656400000000600082015250565b6000614688601c8361320b565b915061469382614652565b602082019050919050565b600060208201905081810360008301526146b78161467b565b9050919050565b7f5061757361626c653a206e6f7420706175736564000000000000000000000000600082015250565b60006146f460148361320b565b91506146ff826146be565b602082019050919050565b60006020820190508181036000830152614723816146e7565b9050919050565b7f5061757361626c653a2070617573656400000000000000000000000000000000600082015250565b600061476060108361320b565b915061476b8261472a565b602082019050919050565b6000602082019050818103600083015261478f81614753565b9050919050565b7f4552433732313a20617070726f766520746f2063616c6c657200000000000000600082015250565b60006147cc60198361320b565b91506147d782614796565b602082019050919050565b600060208201905081810360008301526147fb816147bf565b9050919050565b7f4552433732313a207472616e7366657220746f206e6f6e20455243373231526560008201527f63656976657220696d706c656d656e7465720000000000000000000000000000602082015250565b600061485e60328361320b565b915061486982614802565b604082019050919050565b6000602082019050818103600083015261488d81614851565b9050919050565b600061489f826132bb565b91507fffffffffffffffffffffffffffffffffffffffffffffffffffffffffffffffff82036148d1576148d061452d565b5b600182019050919050565b7f4e487b7100000000000000000000000000000000000000000000000000000000600052601260045260246000fd5b6000614916826132bb565b9150614921836132bb565b925082614931576149306148dc565b5b828204905092915050565b6000614947826132bb565b9150614952836132bb565b925082614962576149616148dc565b5b828206905092915050565b7f416363657373436f6e74726f6c3a206163636f756e7420000000000000000000600082015250565b60006149a3601783613f71565b91506149ae8261496d565b601782019050919050565b7f206973206d697373696e6720726f6c6520000000000000000000000000000000600082015250565b60006149ef601183613f71565b91506149fa826149b9565b601182019050919050565b6000614a1082614996565b9150614a1c8285613f7c565b9150614a27826149e2565b9150614a338284613f7c565b91508190509392505050565b600081519050919050565b600082825260208201905092915050565b6000614a6682614a3f565b614a708185614a4a565b9350614a8081856020860161321c565b614a898161324f565b840191505092915050565b6000608082019050614aa96000830187613350565b614ab66020830186613350565b614ac360408301856133e6565b8181036060830152614ad58184614a5b565b905095945050505050565b600081519050614aef81613171565b92915050565b600060208284031215614b0b57614b0a61313b565b5b6000614b1984828501614ae0565b91505092915050565b7f4552433732315061757361626c653a20746f6b656e207472616e73666572207760008201527f68696c6520706175736564000000000000000000000000000000000000000000602082015250565b6000614b7e602b8361320b565b9150614b8982614b22565b604082019050919050565b60006020820190508181036000830152614bad81614b71565b9050919050565b6000614bbf826132bb565b9150614bca836132bb565b9250817fffffffffffffffffffffffffffffffffffffffffffffffffffffffffffffffff0483118215151615614c0357614c0261452d565b5b828202905092915050565b6000614c19826132bb565b915060008203614c2c57614c2b61452d565b5b600182039050919050565b7f537472696e67733a20686578206c656e67746820696e73756666696369656e74600082015250565b6000614c6d60208361320b565b9150614c7882614c37565b602082019050919050565b60006020820190508181036000830152614c9c81614c60565b9050919050565b7f4e487b7100000000000000000000000000000000000000000000000000000000600052603160045260246000fdfea264697066735822122005ec97fda5c8fa649a1e32ba161692daa902726c5c0b67f8ec109dfac35ee92764736f6c634300080e0033",
  "immutableReferences": {},
  "source": "pragma solidity ^0.8;\n// SPDX-License-Identifier: MIT\n\nimport \"@openzeppelin/contracts/token/ERC721/ERC721.sol\";\nimport \"@openzeppelin/contracts/token/ERC721/extensions/ERC721Enumerable.sol\";\nimport \"@openzeppelin/contracts/token/ERC721/extensions/ERC721Burnable.sol\";\nimport \"@openzeppelin/contracts/token/ERC721/extensions/ERC721Pausable.sol\";\nimport \"@openzeppelin/contracts/access/AccessControlEnumerable.sol\";\nimport \"@openzeppelin/contracts/utils/Context.sol\";\nimport \"@openzeppelin/contracts/utils/Counters.sol\";\n\n/**\n * @dev {ERC721} token, including:\n *\n *  - ability for holders to burn (destroy) their tokens\n *  - a minter role that allows for token minting (creation)\n *  - a pauser role that allows to stop all token transfers\n *  - token ID and URI autogeneration\n *\n * This contract uses {AccessControl} to lock permissioned functions using the\n * different roles - head to its documentation for details.\n *\n * The account that deploys the contract will be granted the minter and pauser\n * roles, as well as the default admin role, which will let it grant both minter\n * and pauser roles to other accounts.\n *\n * _Deprecated in favor of https://wizard.openzeppelin.com/[Contracts Wizard]._\n */\ncontract ServerNft is\n    Context,\n    AccessControlEnumerable,\n    ERC721Enumerable,\n    ERC721Burnable,\n    ERC721Pausable\n{\n    using Counters for Counters.Counter;\n\n    bytes32 public constant MINTER_ROLE = keccak256(\"MINTER_ROLE\");\n    bytes32 public constant PAUSER_ROLE = keccak256(\"PAUSER_ROLE\");\n\n    struct Server {\n        string manufacturer;\n        string sn;\n        string manufactureDate;\n    }\n\n    mapping(uint256 => Server) private _servers; // The token id maps to Server\n    mapping(bytes32 => uint256) private _tokens; // keccak256(Server) map to token id\n\n    Counters.Counter private _tokenIdTracker;\n\n    string private _baseTokenURI;\n\n    /**\n     * @dev Grants `DEFAULT_ADMIN_ROLE`, `MINTER_ROLE` and `PAUSER_ROLE` to the\n     * account that deploys the contract.\n     *\n     * Token URIs will be autogenerated based on `baseURI` and their token IDs.\n     * See {ERC721-tokenURI}.\n     */\n    constructor(\n        string memory name,\n        string memory symbol,\n        string memory baseTokenURI\n    ) ERC721(name, symbol) {\n        _baseTokenURI = baseTokenURI;\n\n        _setupRole(DEFAULT_ADMIN_ROLE, _msgSender());\n\n        _setupRole(MINTER_ROLE, _msgSender());\n        _setupRole(PAUSER_ROLE, _msgSender());\n    }\n\n    function _baseURI() internal view virtual override returns (string memory) {\n        return _baseTokenURI;\n    }\n\n    function mint1(address to) public virtual {\n        require(\n            hasRole(MINTER_ROLE, _msgSender()),\n            \"ERC721PresetMinterPauserAutoId: must have minter role to mint\"\n        );\n\n        // We cannot just use balanceOf to create the new tokenId because tokens\n        // can be burned (destroyed), so we need a separate counter.\n        _mint(to, _tokenIdTracker.current());\n        _tokenIdTracker.increment();\n    }\n\n    /**\n     * @dev Creates a new token for `to`. Its token ID will be automatically\n     * assigned (and available on the emitted {IERC721-Transfer} event), and the token\n     * URI autogenerated based on the base URI passed at construction.\n     *\n     * See {ERC721-_mint}.\n     *\n     * Requirements:\n     *\n     * - the caller must have the `MINTER_ROLE`.\n     */\n    function mint(\n        address to,\n        string memory manufacturer,\n        string memory sn,\n        string memory manu_date\n    ) public virtual {\n        require(\n            hasRole(MINTER_ROLE, _msgSender()),\n            \"ServerNft: must have minter role to mint\"\n        );\n\n        // We cannot just use balanceOf to create the new tokenId because tokens\n        // can be burned (destroyed), so we need a separate counter.\n        bytes32 server_id = keccak256(\n            abi.encodePacked(manufacturer, sn, manu_date)\n        );\n        uint256 token_id = _tokenIdTracker.current();\n\n        if (token_id != 0)\n            require(_tokens[server_id] == 0, \"The server id already exists.\");\n\n        // Map the server id to token id\n        _tokens[server_id] = token_id;\n\n        // Map the token id to Server\n        _servers[token_id] = Server({\n            manufacturer: manufacturer,\n            sn: sn,\n            manufactureDate: manu_date\n        });\n\n        _mint(to, token_id);\n\n        _tokenIdTracker.increment();\n    }\n\n    /**\n     * @dev Pauses all token transfers.\n     *\n     * See {ERC721Pausable} and {Pausable-_pause}.\n     *\n     * Requirements:\n     *\n     * - the caller must have the `PAUSER_ROLE`.\n     */\n    function pause() public virtual {\n        require(\n            hasRole(PAUSER_ROLE, _msgSender()),\n            \"ERC721PresetMinterPauserAutoId: must have pauser role to pause\"\n        );\n        _pause();\n    }\n\n    /**\n     * @dev Unpauses all token transfers.\n     *\n     * See {ERC721Pausable} and {Pausable-_unpause}.\n     *\n     * Requirements:\n     *\n     * - the caller must have the `PAUSER_ROLE`.\n     */\n    function unpause() public virtual {\n        require(\n            hasRole(PAUSER_ROLE, _msgSender()),\n            \"ERC721PresetMinterPauserAutoId: must have pauser role to unpause\"\n        );\n        _unpause();\n    }\n\n    function _beforeTokenTransfer(\n        address from,\n        address to,\n        uint256 tokenId\n    ) internal virtual override(ERC721, ERC721Enumerable, ERC721Pausable) {\n        super._beforeTokenTransfer(from, to, tokenId);\n    }\n\n    /**\n     * @dev See {IERC165-supportsInterface}.\n     */\n    function supportsInterface(bytes4 interfaceId)\n        public\n        view\n        virtual\n        override(AccessControlEnumerable, ERC721, ERC721Enumerable)\n        returns (bool)\n    {\n        return super.supportsInterface(interfaceId);\n    }\n}\n",
  "sourcePath": "/home/hunter/Projects/solidity/server-nft/contracts/ServerNft.sol",
  "compiler": {
    "name": "solc",
    "version": "0.8.14+commit.80d49f37.Emscripten.clang"
  },
  "schemaVersion": "3.4.7",
  "updatedAt": "2022-06-17T09:27:57.685Z",
  "networkType": "ethereum",
  "devdoc": {
    "details": "{ERC721} token, including:  - ability for holders to burn (destroy) their tokens  - a minter role that allows for token minting (creation)  - a pauser role that allows to stop all token transfers  - token ID and URI autogeneration This contract uses {AccessControl} to lock permissioned functions using the different roles - head to its documentation for details. The account that deploys the contract will be granted the minter and pauser roles, as well as the default admin role, which will let it grant both minter and pauser roles to other accounts. _Deprecated in favor of https://wizard.openzeppelin.com/[Contracts Wizard]._",
    "kind": "dev",
    "methods": {
      "approve(address,uint256)": {
        "details": "See {IERC721-approve}."
      },
      "balanceOf(address)": {
        "details": "See {IERC721-balanceOf}."
      },
      "burn(uint256)": {
        "details": "Burns `tokenId`. See {ERC721-_burn}. Requirements: - The caller must own `tokenId` or be an approved operator."
      },
      "constructor": {
        "details": "Grants `DEFAULT_ADMIN_ROLE`, `MINTER_ROLE` and `PAUSER_ROLE` to the account that deploys the contract. Token URIs will be autogenerated based on `baseURI` and their token IDs. See {ERC721-tokenURI}."
      },
      "getApproved(uint256)": {
        "details": "See {IERC721-getApproved}."
      },
      "getRoleAdmin(bytes32)": {
        "details": "Returns the admin role that controls `role`. See {grantRole} and {revokeRole}. To change a role's admin, use {_setRoleAdmin}."
      },
      "getRoleMember(bytes32,uint256)": {
        "details": "Returns one of the accounts that have `role`. `index` must be a value between 0 and {getRoleMemberCount}, non-inclusive. Role bearers are not sorted in any particular way, and their ordering may change at any point. WARNING: When using {getRoleMember} and {getRoleMemberCount}, make sure you perform all queries on the same block. See the following https://forum.openzeppelin.com/t/iterating-over-elements-on-enumerableset-in-openzeppelin-contracts/2296[forum post] for more information."
      },
      "getRoleMemberCount(bytes32)": {
        "details": "Returns the number of accounts that have `role`. Can be used together with {getRoleMember} to enumerate all bearers of a role."
      },
      "grantRole(bytes32,address)": {
        "details": "Grants `role` to `account`. If `account` had not been already granted `role`, emits a {RoleGranted} event. Requirements: - the caller must have ``role``'s admin role."
      },
      "hasRole(bytes32,address)": {
        "details": "Returns `true` if `account` has been granted `role`."
      },
      "isApprovedForAll(address,address)": {
        "details": "See {IERC721-isApprovedForAll}."
      },
      "mint(address,string,string,string)": {
        "details": "Creates a new token for `to`. Its token ID will be automatically assigned (and available on the emitted {IERC721-Transfer} event), and the token URI autogenerated based on the base URI passed at construction. See {ERC721-_mint}. Requirements: - the caller must have the `MINTER_ROLE`."
      },
      "name()": {
        "details": "See {IERC721Metadata-name}."
      },
      "ownerOf(uint256)": {
        "details": "See {IERC721-ownerOf}."
      },
      "pause()": {
        "details": "Pauses all token transfers. See {ERC721Pausable} and {Pausable-_pause}. Requirements: - the caller must have the `PAUSER_ROLE`."
      },
      "paused()": {
        "details": "Returns true if the contract is paused, and false otherwise."
      },
      "renounceRole(bytes32,address)": {
        "details": "Revokes `role` from the calling account. Roles are often managed via {grantRole} and {revokeRole}: this function's purpose is to provide a mechanism for accounts to lose their privileges if they are compromised (such as when a trusted device is misplaced). If the calling account had been revoked `role`, emits a {RoleRevoked} event. Requirements: - the caller must be `account`."
      },
      "revokeRole(bytes32,address)": {
        "details": "Revokes `role` from `account`. If `account` had been granted `role`, emits a {RoleRevoked} event. Requirements: - the caller must have ``role``'s admin role."
      },
      "safeTransferFrom(address,address,uint256)": {
        "details": "See {IERC721-safeTransferFrom}."
      },
      "safeTransferFrom(address,address,uint256,bytes)": {
        "details": "See {IERC721-safeTransferFrom}."
      },
      "setApprovalForAll(address,bool)": {
        "details": "See {IERC721-setApprovalForAll}."
      },
      "supportsInterface(bytes4)": {
        "details": "See {IERC165-supportsInterface}."
      },
      "symbol()": {
        "details": "See {IERC721Metadata-symbol}."
      },
      "tokenByIndex(uint256)": {
        "details": "See {IERC721Enumerable-tokenByIndex}."
      },
      "tokenOfOwnerByIndex(address,uint256)": {
        "details": "See {IERC721Enumerable-tokenOfOwnerByIndex}."
      },
      "tokenURI(uint256)": {
        "details": "See {IERC721Metadata-tokenURI}."
      },
      "totalSupply()": {
        "details": "See {IERC721Enumerable-totalSupply}."
      },
      "transferFrom(address,address,uint256)": {
        "details": "See {IERC721-transferFrom}."
      },
      "unpause()": {
        "details": "Unpauses all token transfers. See {ERC721Pausable} and {Pausable-_unpause}. Requirements: - the caller must have the `PAUSER_ROLE`."
      }
    },
    "version": 1
  },
  "userdoc": {
    "kind": "user",
    "methods": {},
    "version": 1
  }
}