{
  "contractName": "ServerNft",
  "abi": [
    {
      "inputs": [
        {
          "internalType": "string",
          "name": "name",
          "type": "string"
        },
        {
          "internalType": "string",
          "name": "symbol",
          "type": "string"
        },
        {
          "internalType": "string",
          "name": "baseTokenURI",
          "type": "string"
        }
      ],
      "stateMutability": "nonpayable",
      "type": "constructor"
    },
    {
      "anonymous": false,
      "inputs": [
        {
          "indexed": true,
          "internalType": "address",
          "name": "owner",
          "type": "address"
        },
        {
          "indexed": true,
          "internalType": "address",
          "name": "approved",
          "type": "address"
        },
        {
          "indexed": true,
          "internalType": "uint256",
          "name": "tokenId",
          "type": "uint256"
        }
      ],
      "name": "Approval",
      "type": "event"
    },
    {
      "anonymous": false,
      "inputs": [
        {
          "indexed": true,
          "internalType": "address",
          "name": "owner",
          "type": "address"
        },
        {
          "indexed": true,
          "internalType": "address",
          "name": "operator",
          "type": "address"
        },
        {
          "indexed": false,
          "internalType": "bool",
          "name": "approved",
          "type": "bool"
        }
      ],
      "name": "ApprovalForAll",
      "type": "event"
    },
    {
      "anonymous": false,
      "inputs": [
        {
          "indexed": false,
          "internalType": "address",
          "name": "account",
          "type": "address"
        }
      ],
      "name": "Paused",
      "type": "event"
    },
    {
      "anonymous": false,
      "inputs": [
        {
          "indexed": true,
          "internalType": "bytes32",
          "name": "role",
          "type": "bytes32"
        },
        {
          "indexed": true,
          "internalType": "bytes32",
          "name": "previousAdminRole",
          "type": "bytes32"
        },
        {
          "indexed": true,
          "internalType": "bytes32",
          "name": "newAdminRole",
          "type": "bytes32"
        }
      ],
      "name": "RoleAdminChanged",
      "type": "event"
    },
    {
      "anonymous": false,
      "inputs": [
        {
          "indexed": true,
          "internalType": "bytes32",
          "name": "role",
          "type": "bytes32"
        },
        {
          "indexed": true,
          "internalType": "address",
          "name": "account",
          "type": "address"
        },
        {
          "indexed": true,
          "internalType": "address",
          "name": "sender",
          "type": "address"
        }
      ],
      "name": "RoleGranted",
      "type": "event"
    },
    {
      "anonymous": false,
      "inputs": [
        {
          "indexed": true,
          "internalType": "bytes32",
          "name": "role",
          "type": "bytes32"
        },
        {
          "indexed": true,
          "internalType": "address",
          "name": "account",
          "type": "address"
        },
        {
          "indexed": true,
          "internalType": "address",
          "name": "sender",
          "type": "address"
        }
      ],
      "name": "RoleRevoked",
      "type": "event"
    },
    {
      "anonymous": false,
      "inputs": [
        {
          "indexed": true,
          "internalType": "address",
          "name": "from",
          "type": "address"
        },
        {
          "indexed": true,
          "internalType": "address",
          "name": "to",
          "type": "address"
        },
        {
          "indexed": true,
          "internalType": "uint256",
          "name": "tokenId",
          "type": "uint256"
        }
      ],
      "name": "Transfer",
      "type": "event"
    },
    {
      "anonymous": false,
      "inputs": [
        {
          "indexed": false,
          "internalType": "address",
          "name": "account",
          "type": "address"
        }
      ],
      "name": "Unpaused",
      "type": "event"
    },
    {
      "inputs": [],
      "name": "DEFAULT_ADMIN_ROLE",
      "outputs": [
        {
          "internalType": "bytes32",
          "name": "",
          "type": "bytes32"
        }
      ],
      "stateMutability": "view",
      "type": "function",
      "constant": true
    },
    {
      "inputs": [],
      "name": "MINTER_ROLE",
      "outputs": [
        {
          "internalType": "bytes32",
          "name": "",
          "type": "bytes32"
        }
      ],
      "stateMutability": "view",
      "type": "function",
      "constant": true
    },
    {
      "inputs": [],
      "name": "PAUSER_ROLE",
      "outputs": [
        {
          "internalType": "bytes32",
          "name": "",
          "type": "bytes32"
        }
      ],
      "stateMutability": "view",
      "type": "function",
      "constant": true
    },
    {
      "inputs": [
        {
          "internalType": "address",
          "name": "to",
          "type": "address"
        },
        {
          "internalType": "uint256",
          "name": "tokenId",
          "type": "uint256"
        }
      ],
      "name": "approve",
      "outputs": [],
      "stateMutability": "nonpayable",
      "type": "function"
    },
    {
      "inputs": [
        {
          "internalType": "address",
          "name": "owner",
          "type": "address"
        }
      ],
      "name": "balanceOf",
      "outputs": [
        {
          "internalType": "uint256",
          "name": "",
          "type": "uint256"
        }
      ],
      "stateMutability": "view",
      "type": "function",
      "constant": true
    },
    {
      "inputs": [
        {
          "internalType": "uint256",
          "name": "tokenId",
          "type": "uint256"
        }
      ],
      "name": "burn",
      "outputs": [],
      "stateMutability": "nonpayable",
      "type": "function"
    },
    {
      "inputs": [
        {
          "internalType": "uint256",
          "name": "tokenId",
          "type": "uint256"
        }
      ],
      "name": "getApproved",
      "outputs": [
        {
          "internalType": "address",
          "name": "",
          "type": "address"
        }
      ],
      "stateMutability": "view",
      "type": "function",
      "constant": true
    },
    {
      "inputs": [
        {
          "internalType": "bytes32",
          "name": "role",
          "type": "bytes32"
        }
      ],
      "name": "getRoleAdmin",
      "outputs": [
        {
          "internalType": "bytes32",
          "name": "",
          "type": "bytes32"
        }
      ],
      "stateMutability": "view",
      "type": "function",
      "constant": true
    },
    {
      "inputs": [
        {
          "internalType": "bytes32",
          "name": "role",
          "type": "bytes32"
        },
        {
          "internalType": "uint256",
          "name": "index",
          "type": "uint256"
        }
      ],
      "name": "getRoleMember",
      "outputs": [
        {
          "internalType": "address",
          "name": "",
          "type": "address"
        }
      ],
      "stateMutability": "view",
      "type": "function",
      "constant": true
    },
    {
      "inputs": [
        {
          "internalType": "bytes32",
          "name": "role",
          "type": "bytes32"
        }
      ],
      "name": "getRoleMemberCount",
      "outputs": [
        {
          "internalType": "uint256",
          "name": "",
          "type": "uint256"
        }
      ],
      "stateMutability": "view",
      "type": "function",
      "constant": true
    },
    {
      "inputs": [
        {
          "internalType": "bytes32",
          "name": "role",
          "type": "bytes32"
        },
        {
          "internalType": "address",
          "name": "account",
          "type": "address"
        }
      ],
      "name": "grantRole",
      "outputs": [],
      "stateMutability": "nonpayable",
      "type": "function"
    },
    {
      "inputs": [
        {
          "internalType": "bytes32",
          "name": "role",
          "type": "bytes32"
        },
        {
          "internalType": "address",
          "name": "account",
          "type": "address"
        }
      ],
      "name": "hasRole",
      "outputs": [
        {
          "internalType": "bool",
          "name": "",
          "type": "bool"
        }
      ],
      "stateMutability": "view",
      "type": "function",
      "constant": true
    },
    {
      "inputs": [
        {
          "internalType": "address",
          "name": "owner",
          "type": "address"
        },
        {
          "internalType": "address",
          "name": "operator",
          "type": "address"
        }
      ],
      "name": "isApprovedForAll",
      "outputs": [
        {
          "internalType": "bool",
          "name": "",
          "type": "bool"
        }
      ],
      "stateMutability": "view",
      "type": "function",
      "constant": true
    },
    {
      "inputs": [],
      "name": "name",
      "outputs": [
        {
          "internalType": "string",
          "name": "",
          "type": "string"
        }
      ],
      "stateMutability": "view",
      "type": "function",
      "constant": true
    },
    {
      "inputs": [
        {
          "internalType": "uint256",
          "name": "tokenId",
          "type": "uint256"
        }
      ],
      "name": "ownerOf",
      "outputs": [
        {
          "internalType": "address",
          "name": "",
          "type": "address"
        }
      ],
      "stateMutability": "view",
      "type": "function",
      "constant": true
    },
    {
      "inputs": [],
      "name": "paused",
      "outputs": [
        {
          "internalType": "bool",
          "name": "",
          "type": "bool"
        }
      ],
      "stateMutability": "view",
      "type": "function",
      "constant": true
    },
    {
      "inputs": [
        {
          "internalType": "bytes32",
          "name": "role",
          "type": "bytes32"
        },
        {
          "internalType": "address",
          "name": "account",
          "type": "address"
        }
      ],
      "name": "renounceRole",
      "outputs": [],
      "stateMutability": "nonpayable",
      "type": "function"
    },
    {
      "inputs": [
        {
          "internalType": "bytes32",
          "name": "role",
          "type": "bytes32"
        },
        {
          "internalType": "address",
          "name": "account",
          "type": "address"
        }
      ],
      "name": "revokeRole",
      "outputs": [],
      "stateMutability": "nonpayable",
      "type": "function"
    },
    {
      "inputs": [
        {
          "internalType": "address",
          "name": "from",
          "type": "address"
        },
        {
          "internalType": "address",
          "name": "to",
          "type": "address"
        },
        {
          "internalType": "uint256",
          "name": "tokenId",
          "type": "uint256"
        }
      ],
      "name": "safeTransferFrom",
      "outputs": [],
      "stateMutability": "nonpayable",
      "type": "function"
    },
    {
      "inputs": [
        {
          "internalType": "address",
          "name": "from",
          "type": "address"
        },
        {
          "internalType": "address",
          "name": "to",
          "type": "address"
        },
        {
          "internalType": "uint256",
          "name": "tokenId",
          "type": "uint256"
        },
        {
          "internalType": "bytes",
          "name": "_data",
          "type": "bytes"
        }
      ],
      "name": "safeTransferFrom",
      "outputs": [],
      "stateMutability": "nonpayable",
      "type": "function"
    },
    {
      "inputs": [
        {
          "internalType": "address",
          "name": "operator",
          "type": "address"
        },
        {
          "internalType": "bool",
          "name": "approved",
          "type": "bool"
        }
      ],
      "name": "setApprovalForAll",
      "outputs": [],
      "stateMutability": "nonpayable",
      "type": "function"
    },
    {
      "inputs": [],
      "name": "symbol",
      "outputs": [
        {
          "internalType": "string",
          "name": "",
          "type": "string"
        }
      ],
      "stateMutability": "view",
      "type": "function",
      "constant": true
    },
    {
      "inputs": [
        {
          "internalType": "uint256",
          "name": "index",
          "type": "uint256"
        }
      ],
      "name": "tokenByIndex",
      "outputs": [
        {
          "internalType": "uint256",
          "name": "",
          "type": "uint256"
        }
      ],
      "stateMutability": "view",
      "type": "function",
      "constant": true
    },
    {
      "inputs": [
        {
          "internalType": "address",
          "name": "owner",
          "type": "address"
        },
        {
          "internalType": "uint256",
          "name": "index",
          "type": "uint256"
        }
      ],
      "name": "tokenOfOwnerByIndex",
      "outputs": [
        {
          "internalType": "uint256",
          "name": "",
          "type": "uint256"
        }
      ],
      "stateMutability": "view",
      "type": "function",
      "constant": true
    },
    {
      "inputs": [
        {
          "internalType": "uint256",
          "name": "tokenId",
          "type": "uint256"
        }
      ],
      "name": "tokenURI",
      "outputs": [
        {
          "internalType": "string",
          "name": "",
          "type": "string"
        }
      ],
      "stateMutability": "view",
      "type": "function",
      "constant": true
    },
    {
      "inputs": [],
      "name": "totalSupply",
      "outputs": [
        {
          "internalType": "uint256",
          "name": "",
          "type": "uint256"
        }
      ],
      "stateMutability": "view",
      "type": "function",
      "constant": true
    },
    {
      "inputs": [
        {
          "internalType": "address",
          "name": "from",
          "type": "address"
        },
        {
          "internalType": "address",
          "name": "to",
          "type": "address"
        },
        {
          "internalType": "uint256",
          "name": "tokenId",
          "type": "uint256"
        }
      ],
      "name": "transferFrom",
      "outputs": [],
      "stateMutability": "nonpayable",
      "type": "function"
    },
    {
      "inputs": [
        {
          "internalType": "address",
          "name": "to",
          "type": "address"
        },
        {
          "internalType": "string",
          "name": "manufacturer",
          "type": "string"
        },
        {
          "internalType": "string",
          "name": "sn",
          "type": "string"
        },
        {
          "internalType": "string",
          "name": "manu_date",
          "type": "string"
        }
      ],
      "name": "mint",
      "outputs": [],
      "stateMutability": "nonpayable",
      "type": "function"
    },
    {
      "inputs": [],
      "name": "minted_amount",
      "outputs": [
        {
          "internalType": "uint256",
          "name": "",
          "type": "uint256"
        }
      ],
      "stateMutability": "view",
      "type": "function",
      "constant": true
    },
    {
      "inputs": [
        {
          "internalType": "string",
          "name": "manufacturer",
          "type": "string"
        },
        {
          "internalType": "string",
          "name": "sn",
          "type": "string"
        },
        {
          "internalType": "string",
          "name": "manu_date",
          "type": "string"
        }
      ],
      "name": "get_token_id",
      "outputs": [
        {
          "internalType": "uint256",
          "name": "",
          "type": "uint256"
        }
      ],
      "stateMutability": "view",
      "type": "function",
      "constant": true
    },
    {
      "inputs": [
        {
          "internalType": "uint256",
          "name": "token_id",
          "type": "uint256"
        }
      ],
      "name": "get_server",
      "outputs": [
        {
          "components": [
            {
              "internalType": "string",
              "name": "manufacturer",
              "type": "string"
            },
            {
              "internalType": "string",
              "name": "sn",
              "type": "string"
            },
            {
              "internalType": "string",
              "name": "manufactureDate",
              "type": "string"
            }
          ],
          "internalType": "struct ServerNft.Server",
          "name": "",
          "type": "tuple"
        }
      ],
      "stateMutability": "view",
      "type": "function",
      "constant": true
    },
    {
      "inputs": [],
      "name": "pause",
      "outputs": [],
      "stateMutability": "nonpayable",
      "type": "function"
    },
    {
      "inputs": [],
      "name": "unpause",
      "outputs": [],
      "stateMutability": "nonpayable",
      "type": "function"
    },
    {
      "inputs": [
        {
          "internalType": "bytes4",
          "name": "interfaceId",
          "type": "bytes4"
        }
      ],
      "name": "supportsInterface",
      "outputs": [
        {
          "internalType": "bool",
          "name": "",
          "type": "bool"
        }
      ],
      "stateMutability": "view",
      "type": "function",
      "constant": true
    }
  ],
  "bytecode": "0x60806040523480156200001157600080fd5b50604051620059d2380380620059d2833981810160405281019062000037919062000633565b8282816002908051906020019062000051929190620003e6565b5080600390805190602001906200006a929190620003e6565b5050506000600c60006101000a81548160ff0219169083151502179055508060109080519060200190620000a0929190620003e6565b50620000c56000801b620000b96200015060201b60201c565b6200015860201b60201c565b620001067f9f2df0fed2c77648de5860a4cc508cd0818c85b8b8a1ab4ceeef8d981c8956a6620000fa6200015060201b60201c565b6200015860201b60201c565b620001477f65d7a28e3265b37a6474929f336521b332c1681b933f6cb9f3376673440d862a6200013b6200015060201b60201c565b6200015860201b60201c565b50505062000750565b600033905090565b6200016a82826200016e60201b60201c565b5050565b620001858282620001b660201b620016ae1760201c565b620001b18160016000858152602001908152602001600020620002a760201b6200178e1790919060201c565b505050565b620001c88282620002df60201b60201c565b620002a357600160008084815260200190815260200160002060000160008373ffffffffffffffffffffffffffffffffffffffff1673ffffffffffffffffffffffffffffffffffffffff16815260200190815260200160002060006101000a81548160ff021916908315150217905550620002486200015060201b60201c565b73ffffffffffffffffffffffffffffffffffffffff168173ffffffffffffffffffffffffffffffffffffffff16837f2f8788117e7eff1d82e926ec794901d17c78024a50270940304540a733656f0d60405160405180910390a45b5050565b6000620002d7836000018373ffffffffffffffffffffffffffffffffffffffff1660001b6200034960201b60201c565b905092915050565b600080600084815260200190815260200160002060000160008373ffffffffffffffffffffffffffffffffffffffff1673ffffffffffffffffffffffffffffffffffffffff16815260200190815260200160002060009054906101000a900460ff16905092915050565b60006200035d8383620003c360201b60201c565b620003b8578260000182908060018154018082558091505060019003906000526020600020016000909190919091505582600001805490508360010160008481526020019081526020016000208190555060019050620003bd565b600090505b92915050565b600080836001016000848152602001908152602001600020541415905092915050565b828054620003f4906200071b565b90600052602060002090601f01602090048101928262000418576000855562000464565b82601f106200043357805160ff191683800117855562000464565b8280016001018555821562000464579182015b828111156200046357825182559160200191906001019062000446565b5b50905062000473919062000477565b5090565b5b808211156200049257600081600090555060010162000478565b5090565b6000604051905090565b600080fd5b600080fd5b600080fd5b600080fd5b6000601f19601f8301169050919050565b7f4e487b7100000000000000000000000000000000000000000000000000000000600052604160045260246000fd5b620004ff82620004b4565b810181811067ffffffffffffffff82111715620005215762000520620004c5565b5b80604052505050565b60006200053662000496565b9050620005448282620004f4565b919050565b600067ffffffffffffffff821115620005675762000566620004c5565b5b6200057282620004b4565b9050602081019050919050565b60005b838110156200059f57808201518184015260208101905062000582565b83811115620005af576000848401525b50505050565b6000620005cc620005c68462000549565b6200052a565b905082815260208101848484011115620005eb57620005ea620004af565b5b620005f88482856200057f565b509392505050565b600082601f830112620006185762000617620004aa565b5b81516200062a848260208601620005b5565b91505092915050565b6000806000606084860312156200064f576200064e620004a0565b5b600084015167ffffffffffffffff81111562000670576200066f620004a5565b5b6200067e8682870162000600565b935050602084015167ffffffffffffffff811115620006a257620006a1620004a5565b5b620006b08682870162000600565b925050604084015167ffffffffffffffff811115620006d457620006d3620004a5565b5b620006e28682870162000600565b9150509250925092565b7f4e487b7100000000000000000000000000000000000000000000000000000000600052602260045260246000fd5b600060028204905060018216806200073457607f821691505b6020821081036200074a5762000749620006ec565b5b50919050565b61527280620007606000396000f3fe608060405234801561001057600080fd5b50600436106102065760003560e01c80635c975abb1161011a578063a217fddf116100ad578063ca15c8731161007c578063ca15c8731461060f578063d53913931461063f578063d547741f1461065d578063e63ab1e914610679578063e985e9c51461069757610206565b8063a217fddf14610589578063a22cb465146105a7578063b88d4fde146105c3578063c87b56dd146105df57610206565b80638456cb59116100e95780638456cb59146105015780639010d07c1461050b57806391d148541461053b57806395d89b411461056b57610206565b80635c975abb146104535780636352211e14610471578063658cd5e8146104a157806370a08231146104d157610206565b80632f2ff15d1161019d57806342842e0e1161016c57806342842e0e146103b157806342966c68146103cd5780634a0706be146103e95780634f6ccce71461040557806352bc2bdb1461043557610206565b80632f2ff15d1461033f5780632f745c591461035b57806336568abe1461038b5780633f4ba83a146103a757610206565b806318160ddd116101d957806318160ddd146102a5578063183da65d146102c357806323b872dd146102f3578063248a9ca31461030f57610206565b806301ffc9a71461020b57806306fdde031461023b578063081812fc14610259578063095ea7b314610289575b600080fd5b610225600480360381019061022091906134de565b6106c7565b6040516102329190613526565b60405180910390f35b6102436106d9565b60405161025091906135da565b60405180910390f35b610273600480360381019061026e9190613632565b61076b565b60405161028091906136a0565b60405180910390f35b6102a3600480360381019061029e91906136e7565b6107f0565b005b6102ad610907565b6040516102ba9190613736565b60405180910390f35b6102dd60048036038101906102d89190613886565b610914565b6040516102ea9190613736565b60405180910390f35b61030d6004803603810190610308919061392d565b610962565b005b610329600480360381019061032491906139b6565b6109c2565b60405161033691906139f2565b60405180910390f35b61035960048036038101906103549190613a0d565b6109e1565b005b610375600480360381019061037091906136e7565b610a02565b6040516103829190613736565b60405180910390f35b6103a560048036038101906103a09190613a0d565b610aa7565b005b6103af610b2a565b005b6103cb60048036038101906103c6919061392d565b610ba4565b005b6103e760048036038101906103e29190613632565b610bc4565b005b61040360048036038101906103fe9190613a4d565b610c20565b005b61041f600480360381019061041a9190613632565b610ede565b60405161042c9190613736565b60405180910390f35b61043d610f4f565b60405161044a9190613736565b60405180910390f35b61045b610f60565b6040516104689190613526565b60405180910390f35b61048b60048036038101906104869190613632565b610f77565b60405161049891906136a0565b60405180910390f35b6104bb60048036038101906104b69190613632565b611028565b6040516104c89190613bb0565b60405180910390f35b6104eb60048036038101906104e69190613bd2565b61120b565b6040516104f89190613736565b60405180910390f35b6105096112c2565b005b61052560048036038101906105209190613bff565b61133c565b60405161053291906136a0565b60405180910390f35b61055560048036038101906105509190613a0d565b61136b565b6040516105629190613526565b60405180910390f35b6105736113d5565b60405161058091906135da565b60405180910390f35b610591611467565b60405161059e91906139f2565b60405180910390f35b6105c160048036038101906105bc9190613c6b565b61146e565b005b6105dd60048036038101906105d89190613d4c565b611484565b005b6105f960048036038101906105f49190613632565b6114e6565b60405161060691906135da565b60405180910390f35b610629600480360381019061062491906139b6565b61158d565b6040516106369190613736565b60405180910390f35b6106476115b1565b60405161065491906139f2565b60405180910390f35b61067760048036038101906106729190613a0d565b6115d5565b005b6106816115f6565b60405161068e91906139f2565b60405180910390f35b6106b160048036038101906106ac9190613dcf565b61161a565b6040516106be9190613526565b60405180910390f35b60006106d2826117be565b9050919050565b6060600280546106e890613e3e565b80601f016020809104026020016040519081016040528092919081815260200182805461071490613e3e565b80156107615780601f1061073657610100808354040283529160200191610761565b820191906000526020600020905b81548152906001019060200180831161074457829003601f168201915b5050505050905090565b600061077682611838565b6107b5576040517f08c379a00000000000000000000000000000000000000000000000000000000081526004016107ac90613ee1565b60405180910390fd5b6006600083815260200190815260200160002060009054906101000a900473ffffffffffffffffffffffffffffffffffffffff169050919050565b60006107fb82610f77565b90508073ffffffffffffffffffffffffffffffffffffffff168373ffffffffffffffffffffffffffffffffffffffff160361086b576040517f08c379a000000000000000000000000000000000000000000000000000000000815260040161086290613f73565b60405180910390fd5b8073ffffffffffffffffffffffffffffffffffffffff1661088a6118a4565b73ffffffffffffffffffffffffffffffffffffffff1614806108b957506108b8816108b36118a4565b61161a565b5b6108f8576040517f08c379a00000000000000000000000000000000000000000000000000000000081526004016108ef90614005565b60405180910390fd5b61090283836118ac565b505050565b6000600a80549050905090565b60008084848460405160200161092c93929190614061565b604051602081830303815290604052805190602001209050600e6000828152602001908152602001600020549150509392505050565b61097361096d6118a4565b82611965565b6109b2576040517f08c379a00000000000000000000000000000000000000000000000000000000081526004016109a990614104565b60405180910390fd5b6109bd838383611a43565b505050565b6000806000838152602001908152602001600020600101549050919050565b6109ea826109c2565b6109f381611ca9565b6109fd8383611cbd565b505050565b6000610a0d8361120b565b8210610a4e576040517f08c379a0000000000000000000000000000000000000000000000000000000008152600401610a4590614196565b60405180910390fd5b600860008473ffffffffffffffffffffffffffffffffffffffff1673ffffffffffffffffffffffffffffffffffffffff168152602001908152602001600020600083815260200190815260200160002054905092915050565b610aaf6118a4565b73ffffffffffffffffffffffffffffffffffffffff168173ffffffffffffffffffffffffffffffffffffffff1614610b1c576040517f08c379a0000000000000000000000000000000000000000000000000000000008152600401610b1390614228565b60405180910390fd5b610b268282611cf1565b5050565b610b5b7f65d7a28e3265b37a6474929f336521b332c1681b933f6cb9f3376673440d862a610b566118a4565b61136b565b610b9a576040517f08c379a0000000000000000000000000000000000000000000000000000000008152600401610b91906142ba565b60405180910390fd5b610ba2611d25565b565b610bbf83838360405180602001604052806000815250611484565b505050565b610bd5610bcf6118a4565b82611965565b610c14576040517f08c379a0000000000000000000000000000000000000000000000000000000008152600401610c0b9061434c565b60405180910390fd5b610c1d81611dc7565b50565b610c517f9f2df0fed2c77648de5860a4cc508cd0818c85b8b8a1ab4ceeef8d981c8956a6610c4c6118a4565b61136b565b610c90576040517f08c379a0000000000000000000000000000000000000000000000000000000008152600401610c87906143de565b60405180910390fd5b60008351118015610ca2575060108351105b610ce1576040517f08c379a0000000000000000000000000000000000000000000000000000000008152600401610cd890614470565b60405180910390fd5b60008251118015610cf3575060108251105b610d32576040517f08c379a0000000000000000000000000000000000000000000000000000000008152600401610d2990614502565b60405180910390fd5b60008151118015610d44575060108151105b610d83576040517f08c379a0000000000000000000000000000000000000000000000000000000008152600401610d7a90614470565b60405180910390fd5b6000838383604051602001610d9a93929190614061565b6040516020818303038152906040528051906020012090506000600e60008381526020019081526020016000205414610e08576040517f08c379a0000000000000000000000000000000000000000000000000000000008152600401610dff90614594565b60405180910390fd5b60006001610e16600f611ee4565b610e2091906145e3565b905080600e600084815260200190815260200160002081905550604051806060016040528086815260200185815260200184815250600d60008381526020019081526020016000206000820151816000019080519060200190610e849291906133ae565b506020820151816001019080519060200190610ea19291906133ae565b506040820151816002019080519060200190610ebe9291906133ae565b50905050610ecc8682611ef2565b610ed6600f6120cb565b505050505050565b6000610ee8610907565b8210610f29576040517f08c379a0000000000000000000000000000000000000000000000000000000008152600401610f20906146ab565b60405180910390fd5b600a8281548110610f3d57610f3c6146cb565b5b90600052602060002001549050919050565b6000610f5b600f611ee4565b905090565b6000600c60009054906101000a900460ff16905090565b6000806004600084815260200190815260200160002060009054906101000a900473ffffffffffffffffffffffffffffffffffffffff169050600073ffffffffffffffffffffffffffffffffffffffff168173ffffffffffffffffffffffffffffffffffffffff160361101f576040517f08c379a00000000000000000000000000000000000000000000000000000000081526004016110169061476c565b60405180910390fd5b80915050919050565b611030613434565b600d600083815260200190815260200160002060405180606001604052908160008201805461105e90613e3e565b80601f016020809104026020016040519081016040528092919081815260200182805461108a90613e3e565b80156110d75780601f106110ac576101008083540402835291602001916110d7565b820191906000526020600020905b8154815290600101906020018083116110ba57829003601f168201915b505050505081526020016001820180546110f090613e3e565b80601f016020809104026020016040519081016040528092919081815260200182805461111c90613e3e565b80156111695780601f1061113e57610100808354040283529160200191611169565b820191906000526020600020905b81548152906001019060200180831161114c57829003601f168201915b5050505050815260200160028201805461118290613e3e565b80601f01602080910402602001604051908101604052809291908181526020018280546111ae90613e3e565b80156111fb5780601f106111d0576101008083540402835291602001916111fb565b820191906000526020600020905b8154815290600101906020018083116111de57829003601f168201915b5050505050815250509050919050565b60008073ffffffffffffffffffffffffffffffffffffffff168273ffffffffffffffffffffffffffffffffffffffff160361127b576040517f08c379a0000000000000000000000000000000000000000000000000000000008152600401611272906147fe565b60405180910390fd5b600560008373ffffffffffffffffffffffffffffffffffffffff1673ffffffffffffffffffffffffffffffffffffffff168152602001908152602001600020549050919050565b6112f37f65d7a28e3265b37a6474929f336521b332c1681b933f6cb9f3376673440d862a6112ee6118a4565b61136b565b611332576040517f08c379a000000000000000000000000000000000000000000000000000000000815260040161132990614890565b60405180910390fd5b61133a6120e1565b565b6000611363826001600086815260200190815260200160002061218490919063ffffffff16565b905092915050565b600080600084815260200190815260200160002060000160008373ffffffffffffffffffffffffffffffffffffffff1673ffffffffffffffffffffffffffffffffffffffff16815260200190815260200160002060009054906101000a900460ff16905092915050565b6060600380546113e490613e3e565b80601f016020809104026020016040519081016040528092919081815260200182805461141090613e3e565b801561145d5780601f106114325761010080835404028352916020019161145d565b820191906000526020600020905b81548152906001019060200180831161144057829003601f168201915b5050505050905090565b6000801b81565b6114806114796118a4565b838361219e565b5050565b61149561148f6118a4565b83611965565b6114d4576040517f08c379a00000000000000000000000000000000000000000000000000000000081526004016114cb90614104565b60405180910390fd5b6114e08484848461230a565b50505050565b60606114f182611838565b611530576040517f08c379a000000000000000000000000000000000000000000000000000000000815260040161152790614922565b60405180910390fd5b600061153a612366565b9050600081511161155a5760405180602001604052806000815250611585565b80611564846123f8565b604051602001611575929190614942565b6040516020818303038152906040525b915050919050565b60006115aa60016000848152602001908152602001600020612558565b9050919050565b7f9f2df0fed2c77648de5860a4cc508cd0818c85b8b8a1ab4ceeef8d981c8956a681565b6115de826109c2565b6115e781611ca9565b6115f18383611cf1565b505050565b7f65d7a28e3265b37a6474929f336521b332c1681b933f6cb9f3376673440d862a81565b6000600760008473ffffffffffffffffffffffffffffffffffffffff1673ffffffffffffffffffffffffffffffffffffffff16815260200190815260200160002060008373ffffffffffffffffffffffffffffffffffffffff1673ffffffffffffffffffffffffffffffffffffffff16815260200190815260200160002060009054906101000a900460ff16905092915050565b6116b8828261136b565b61178a57600160008084815260200190815260200160002060000160008373ffffffffffffffffffffffffffffffffffffffff1673ffffffffffffffffffffffffffffffffffffffff16815260200190815260200160002060006101000a81548160ff02191690831515021790555061172f6118a4565b73ffffffffffffffffffffffffffffffffffffffff168173ffffffffffffffffffffffffffffffffffffffff16837f2f8788117e7eff1d82e926ec794901d17c78024a50270940304540a733656f0d60405160405180910390a45b5050565b60006117b6836000018373ffffffffffffffffffffffffffffffffffffffff1660001b61256d565b905092915050565b60007f780e9d63000000000000000000000000000000000000000000000000000000007bffffffffffffffffffffffffffffffffffffffffffffffffffffffff1916827bffffffffffffffffffffffffffffffffffffffffffffffffffffffff191614806118315750611830826125dd565b5b9050919050565b60008073ffffffffffffffffffffffffffffffffffffffff166004600084815260200190815260200160002060009054906101000a900473ffffffffffffffffffffffffffffffffffffffff1673ffffffffffffffffffffffffffffffffffffffff1614159050919050565b600033905090565b816006600083815260200190815260200160002060006101000a81548173ffffffffffffffffffffffffffffffffffffffff021916908373ffffffffffffffffffffffffffffffffffffffff160217905550808273ffffffffffffffffffffffffffffffffffffffff1661191f83610f77565b73ffffffffffffffffffffffffffffffffffffffff167f8c5be1e5ebec7d5bd14f71427d1e84f3dd0314c0f7b2291e5b200ac8c7c3b92560405160405180910390a45050565b600061197082611838565b6119af576040517f08c379a00000000000000000000000000000000000000000000000000000000081526004016119a6906149d8565b60405180910390fd5b60006119ba83610f77565b90508073ffffffffffffffffffffffffffffffffffffffff168473ffffffffffffffffffffffffffffffffffffffff1614806119fc57506119fb818561161a565b5b80611a3a57508373ffffffffffffffffffffffffffffffffffffffff16611a228461076b565b73ffffffffffffffffffffffffffffffffffffffff16145b91505092915050565b8273ffffffffffffffffffffffffffffffffffffffff16611a6382610f77565b73ffffffffffffffffffffffffffffffffffffffff1614611ab9576040517f08c379a0000000000000000000000000000000000000000000000000000000008152600401611ab090614a6a565b60405180910390fd5b600073ffffffffffffffffffffffffffffffffffffffff168273ffffffffffffffffffffffffffffffffffffffff1603611b28576040517f08c379a0000000000000000000000000000000000000000000000000000000008152600401611b1f90614afc565b60405180910390fd5b611b338383836126bf565b611b3e6000826118ac565b6001600560008573ffffffffffffffffffffffffffffffffffffffff1673ffffffffffffffffffffffffffffffffffffffff1681526020019081526020016000206000828254611b8e9190614b1c565b925050819055506001600560008473ffffffffffffffffffffffffffffffffffffffff1673ffffffffffffffffffffffffffffffffffffffff1681526020019081526020016000206000828254611be591906145e3565b92505081905550816004600083815260200190815260200160002060006101000a81548173ffffffffffffffffffffffffffffffffffffffff021916908373ffffffffffffffffffffffffffffffffffffffff160217905550808273ffffffffffffffffffffffffffffffffffffffff168473ffffffffffffffffffffffffffffffffffffffff167fddf252ad1be2c89b69c2b068fc378daa952ba7f163c4a11628f55a4df523b3ef60405160405180910390a4611ca48383836126cf565b505050565b611cba81611cb56118a4565b6126d4565b50565b611cc782826116ae565b611cec816001600085815260200190815260200160002061178e90919063ffffffff16565b505050565b611cfb8282612771565b611d20816001600085815260200190815260200160002061285290919063ffffffff16565b505050565b611d2d610f60565b611d6c576040517f08c379a0000000000000000000000000000000000000000000000000000000008152600401611d6390614b9c565b60405180910390fd5b6000600c60006101000a81548160ff0219169083151502179055507f5db9ee0a495bf2e6ff9c91a7834c1ba4fdd244a5e8aa4e537bd38aeae4b073aa611db06118a4565b604051611dbd91906136a0565b60405180910390a1565b6000611dd282610f77565b9050611de0816000846126bf565b611deb6000836118ac565b6001600560008373ffffffffffffffffffffffffffffffffffffffff1673ffffffffffffffffffffffffffffffffffffffff1681526020019081526020016000206000828254611e3b9190614b1c565b925050819055506004600083815260200190815260200160002060006101000a81549073ffffffffffffffffffffffffffffffffffffffff021916905581600073ffffffffffffffffffffffffffffffffffffffff168273ffffffffffffffffffffffffffffffffffffffff167fddf252ad1be2c89b69c2b068fc378daa952ba7f163c4a11628f55a4df523b3ef60405160405180910390a4611ee0816000846126cf565b5050565b600081600001549050919050565b600073ffffffffffffffffffffffffffffffffffffffff168273ffffffffffffffffffffffffffffffffffffffff1603611f61576040517f08c379a0000000000000000000000000000000000000000000000000000000008152600401611f5890614c08565b60405180910390fd5b611f6a81611838565b15611faa576040517f08c379a0000000000000000000000000000000000000000000000000000000008152600401611fa190614c74565b60405180910390fd5b611fb6600083836126bf565b6001600560008473ffffffffffffffffffffffffffffffffffffffff1673ffffffffffffffffffffffffffffffffffffffff168152602001908152602001600020600082825461200691906145e3565b92505081905550816004600083815260200190815260200160002060006101000a81548173ffffffffffffffffffffffffffffffffffffffff021916908373ffffffffffffffffffffffffffffffffffffffff160217905550808273ffffffffffffffffffffffffffffffffffffffff16600073ffffffffffffffffffffffffffffffffffffffff167fddf252ad1be2c89b69c2b068fc378daa952ba7f163c4a11628f55a4df523b3ef60405160405180910390a46120c7600083836126cf565b5050565b6001816000016000828254019250508190555050565b6120e9610f60565b15612129576040517f08c379a000000000000000000000000000000000000000000000000000000000815260040161212090614ce0565b60405180910390fd5b6001600c60006101000a81548160ff0219169083151502179055507f62e78cea01bee320cd4e420270b5ea74000d11b0c9f74754ebdbfc544b05a25861216d6118a4565b60405161217a91906136a0565b60405180910390a1565b60006121938360000183612882565b60001c905092915050565b8173ffffffffffffffffffffffffffffffffffffffff168373ffffffffffffffffffffffffffffffffffffffff160361220c576040517f08c379a000000000000000000000000000000000000000000000000000000000815260040161220390614d4c565b60405180910390fd5b80600760008573ffffffffffffffffffffffffffffffffffffffff1673ffffffffffffffffffffffffffffffffffffffff16815260200190815260200160002060008473ffffffffffffffffffffffffffffffffffffffff1673ffffffffffffffffffffffffffffffffffffffff16815260200190815260200160002060006101000a81548160ff0219169083151502179055508173ffffffffffffffffffffffffffffffffffffffff168373ffffffffffffffffffffffffffffffffffffffff167f17307eab39ab6107e8899845ad3d59bd9653f200f220920489ca2b5937696c31836040516122fd9190613526565b60405180910390a3505050565b612315848484611a43565b612321848484846128ad565b612360576040517f08c379a000000000000000000000000000000000000000000000000000000000815260040161235790614dde565b60405180910390fd5b50505050565b60606010805461237590613e3e565b80601f01602080910402602001604051908101604052809291908181526020018280546123a190613e3e565b80156123ee5780601f106123c3576101008083540402835291602001916123ee565b820191906000526020600020905b8154815290600101906020018083116123d157829003601f168201915b5050505050905090565b60606000820361243f576040518060400160405280600181526020017f30000000000000000000000000000000000000000000000000000000000000008152509050612553565b600082905060005b6000821461247157808061245a90614dfe565b915050600a8261246a9190614e75565b9150612447565b60008167ffffffffffffffff81111561248d5761248c61375b565b5b6040519080825280601f01601f1916602001820160405280156124bf5781602001600182028036833780820191505090505b5090505b6000851461254c576001826124d89190614b1c565b9150600a856124e79190614ea6565b60306124f391906145e3565b60f81b818381518110612509576125086146cb565b5b60200101907effffffffffffffffffffffffffffffffffffffffffffffffffffffffffffff1916908160001a905350600a856125459190614e75565b94506124c3565b8093505050505b919050565b600061256682600001612a34565b9050919050565b60006125798383612a45565b6125d25782600001829080600181540180825580915050600190039060005260206000200160009091909190915055826000018054905083600101600084815260200190815260200160002081905550600190506125d7565b600090505b92915050565b60007f80ac58cd000000000000000000000000000000000000000000000000000000007bffffffffffffffffffffffffffffffffffffffffffffffffffffffff1916827bffffffffffffffffffffffffffffffffffffffffffffffffffffffff191614806126a857507f5b5e139f000000000000000000000000000000000000000000000000000000007bffffffffffffffffffffffffffffffffffffffffffffffffffffffff1916827bffffffffffffffffffffffffffffffffffffffffffffffffffffffff1916145b806126b857506126b782612a68565b5b9050919050565b6126ca838383612ae2565b505050565b505050565b6126de828261136b565b61276d576127038173ffffffffffffffffffffffffffffffffffffffff166014612b3a565b6127118360001c6020612b3a565b604051602001612722929190614f6f565b6040516020818303038152906040526040517f08c379a000000000000000000000000000000000000000000000000000000000815260040161276491906135da565b60405180910390fd5b5050565b61277b828261136b565b1561284e57600080600084815260200190815260200160002060000160008373ffffffffffffffffffffffffffffffffffffffff1673ffffffffffffffffffffffffffffffffffffffff16815260200190815260200160002060006101000a81548160ff0219169083151502179055506127f36118a4565b73ffffffffffffffffffffffffffffffffffffffff168173ffffffffffffffffffffffffffffffffffffffff16837ff6391f5c32d9c69d2a47ea670b442974b53935d1edc7fd64eb21e047a839171b60405160405180910390a45b5050565b600061287a836000018373ffffffffffffffffffffffffffffffffffffffff1660001b612d76565b905092915050565b600082600001828154811061289a576128996146cb565b5b9060005260206000200154905092915050565b60006128ce8473ffffffffffffffffffffffffffffffffffffffff16612e8a565b15612a27578373ffffffffffffffffffffffffffffffffffffffff1663150b7a026128f76118a4565b8786866040518563ffffffff1660e01b81526004016129199493929190614ffe565b6020604051808303816000875af192505050801561295557506040513d601f19601f82011682018060405250810190612952919061505f565b60015b6129d7573d8060008114612985576040519150601f19603f3d011682016040523d82523d6000602084013e61298a565b606091505b5060008151036129cf576040517f08c379a00000000000000000000000000000000000000000000000000000000081526004016129c690614dde565b60405180910390fd5b805181602001fd5b63150b7a0260e01b7bffffffffffffffffffffffffffffffffffffffffffffffffffffffff1916817bffffffffffffffffffffffffffffffffffffffffffffffffffffffff191614915050612a2c565b600190505b949350505050565b600081600001805490509050919050565b600080836001016000848152602001908152602001600020541415905092915050565b60007f5a05180f000000000000000000000000000000000000000000000000000000007bffffffffffffffffffffffffffffffffffffffffffffffffffffffff1916827bffffffffffffffffffffffffffffffffffffffffffffffffffffffff19161480612adb5750612ada82612ead565b5b9050919050565b612aed838383612f27565b612af5610f60565b15612b35576040517f08c379a0000000000000000000000000000000000000000000000000000000008152600401612b2c906150fe565b60405180910390fd5b505050565b606060006002836002612b4d919061511e565b612b5791906145e3565b67ffffffffffffffff811115612b7057612b6f61375b565b5b6040519080825280601f01601f191660200182016040528015612ba25781602001600182028036833780820191505090505b5090507f300000000000000000000000000000000000000000000000000000000000000081600081518110612bda57612bd96146cb565b5b60200101907effffffffffffffffffffffffffffffffffffffffffffffffffffffffffffff1916908160001a9053507f780000000000000000000000000000000000000000000000000000000000000081600181518110612c3e57612c3d6146cb565b5b60200101907effffffffffffffffffffffffffffffffffffffffffffffffffffffffffffff1916908160001a90535060006001846002612c7e919061511e565b612c8891906145e3565b90505b6001811115612d28577f3031323334353637383961626364656600000000000000000000000000000000600f861660108110612cca57612cc96146cb565b5b1a60f81b828281518110612ce157612ce06146cb565b5b60200101907effffffffffffffffffffffffffffffffffffffffffffffffffffffffffffff1916908160001a905350600485901c945080612d2190615178565b9050612c8b565b5060008414612d6c576040517f08c379a0000000000000000000000000000000000000000000000000000000008152600401612d63906151ed565b60405180910390fd5b8091505092915050565b60008083600101600084815260200190815260200160002054905060008114612e7e576000600182612da89190614b1c565b9050600060018660000180549050612dc09190614b1c565b9050818114612e2f576000866000018281548110612de157612de06146cb565b5b9060005260206000200154905080876000018481548110612e0557612e046146cb565b5b90600052602060002001819055508387600101600083815260200190815260200160002081905550505b85600001805480612e4357612e4261520d565b5b600190038181906000526020600020016000905590558560010160008681526020019081526020016000206000905560019350505050612e84565b60009150505b92915050565b6000808273ffffffffffffffffffffffffffffffffffffffff163b119050919050565b60007f7965db0b000000000000000000000000000000000000000000000000000000007bffffffffffffffffffffffffffffffffffffffffffffffffffffffff1916827bffffffffffffffffffffffffffffffffffffffffffffffffffffffff19161480612f205750612f1f82613039565b5b9050919050565b612f328383836130a3565b600073ffffffffffffffffffffffffffffffffffffffff168373ffffffffffffffffffffffffffffffffffffffff1603612f7457612f6f816130a8565b612fb3565b8173ffffffffffffffffffffffffffffffffffffffff168373ffffffffffffffffffffffffffffffffffffffff1614612fb257612fb183826130f1565b5b5b600073ffffffffffffffffffffffffffffffffffffffff168273ffffffffffffffffffffffffffffffffffffffff1603612ff557612ff08161325e565b613034565b8273ffffffffffffffffffffffffffffffffffffffff168273ffffffffffffffffffffffffffffffffffffffff161461303357613032828261332f565b5b5b505050565b60007f01ffc9a7000000000000000000000000000000000000000000000000000000007bffffffffffffffffffffffffffffffffffffffffffffffffffffffff1916827bffffffffffffffffffffffffffffffffffffffffffffffffffffffff1916149050919050565b505050565b600a80549050600b600083815260200190815260200160002081905550600a81908060018154018082558091505060019003906000526020600020016000909190919091505550565b600060016130fe8461120b565b6131089190614b1c565b90506000600960008481526020019081526020016000205490508181146131ed576000600860008673ffffffffffffffffffffffffffffffffffffffff1673ffffffffffffffffffffffffffffffffffffffff168152602001908152602001600020600084815260200190815260200160002054905080600860008773ffffffffffffffffffffffffffffffffffffffff1673ffffffffffffffffffffffffffffffffffffffff168152602001908152602001600020600084815260200190815260200160002081905550816009600083815260200190815260200160002081905550505b6009600084815260200190815260200160002060009055600860008573ffffffffffffffffffffffffffffffffffffffff1673ffffffffffffffffffffffffffffffffffffffff16815260200190815260200160002060008381526020019081526020016000206000905550505050565b60006001600a805490506132729190614b1c565b90506000600b60008481526020019081526020016000205490506000600a83815481106132a2576132a16146cb565b5b9060005260206000200154905080600a83815481106132c4576132c36146cb565b5b906000526020600020018190555081600b600083815260200190815260200160002081905550600b600085815260200190815260200160002060009055600a8054806133135761331261520d565b5b6001900381819060005260206000200160009055905550505050565b600061333a8361120b565b905081600860008573ffffffffffffffffffffffffffffffffffffffff1673ffffffffffffffffffffffffffffffffffffffff168152602001908152602001600020600083815260200190815260200160002081905550806009600084815260200190815260200160002081905550505050565b8280546133ba90613e3e565b90600052602060002090601f0160209004810192826133dc5760008555613423565b82601f106133f557805160ff1916838001178555613423565b82800160010185558215613423579182015b82811115613422578251825591602001919060010190613407565b5b5090506134309190613455565b5090565b60405180606001604052806060815260200160608152602001606081525090565b5b8082111561346e576000816000905550600101613456565b5090565b6000604051905090565b600080fd5b600080fd5b60007fffffffff0000000000000000000000000000000000000000000000000000000082169050919050565b6134bb81613486565b81146134c657600080fd5b50565b6000813590506134d8816134b2565b92915050565b6000602082840312156134f4576134f361347c565b5b6000613502848285016134c9565b91505092915050565b60008115159050919050565b6135208161350b565b82525050565b600060208201905061353b6000830184613517565b92915050565b600081519050919050565b600082825260208201905092915050565b60005b8381101561357b578082015181840152602081019050613560565b8381111561358a576000848401525b50505050565b6000601f19601f8301169050919050565b60006135ac82613541565b6135b6818561354c565b93506135c681856020860161355d565b6135cf81613590565b840191505092915050565b600060208201905081810360008301526135f481846135a1565b905092915050565b6000819050919050565b61360f816135fc565b811461361a57600080fd5b50565b60008135905061362c81613606565b92915050565b6000602082840312156136485761364761347c565b5b60006136568482850161361d565b91505092915050565b600073ffffffffffffffffffffffffffffffffffffffff82169050919050565b600061368a8261365f565b9050919050565b61369a8161367f565b82525050565b60006020820190506136b56000830184613691565b92915050565b6136c48161367f565b81146136cf57600080fd5b50565b6000813590506136e1816136bb565b92915050565b600080604083850312156136fe576136fd61347c565b5b600061370c858286016136d2565b925050602061371d8582860161361d565b9150509250929050565b613730816135fc565b82525050565b600060208201905061374b6000830184613727565b92915050565b600080fd5b600080fd5b7f4e487b7100000000000000000000000000000000000000000000000000000000600052604160045260246000fd5b61379382613590565b810181811067ffffffffffffffff821117156137b2576137b161375b565b5b80604052505050565b60006137c5613472565b90506137d1828261378a565b919050565b600067ffffffffffffffff8211156137f1576137f061375b565b5b6137fa82613590565b9050602081019050919050565b82818337600083830152505050565b6000613829613824846137d6565b6137bb565b90508281526020810184848401111561384557613844613756565b5b613850848285613807565b509392505050565b600082601f83011261386d5761386c613751565b5b813561387d848260208601613816565b91505092915050565b60008060006060848603121561389f5761389e61347c565b5b600084013567ffffffffffffffff8111156138bd576138bc613481565b5b6138c986828701613858565b935050602084013567ffffffffffffffff8111156138ea576138e9613481565b5b6138f686828701613858565b925050604084013567ffffffffffffffff81111561391757613916613481565b5b61392386828701613858565b9150509250925092565b6000806000606084860312156139465761394561347c565b5b6000613954868287016136d2565b9350506020613965868287016136d2565b92505060406139768682870161361d565b9150509250925092565b6000819050919050565b61399381613980565b811461399e57600080fd5b50565b6000813590506139b08161398a565b92915050565b6000602082840312156139cc576139cb61347c565b5b60006139da848285016139a1565b91505092915050565b6139ec81613980565b82525050565b6000602082019050613a0760008301846139e3565b92915050565b60008060408385031215613a2457613a2361347c565b5b6000613a32858286016139a1565b9250506020613a43858286016136d2565b9150509250929050565b60008060008060808587031215613a6757613a6661347c565b5b6000613a75878288016136d2565b945050602085013567ffffffffffffffff811115613a9657613a95613481565b5b613aa287828801613858565b935050604085013567ffffffffffffffff811115613ac357613ac2613481565b5b613acf87828801613858565b925050606085013567ffffffffffffffff811115613af057613aef613481565b5b613afc87828801613858565b91505092959194509250565b600082825260208201905092915050565b6000613b2482613541565b613b2e8185613b08565b9350613b3e81856020860161355d565b613b4781613590565b840191505092915050565b60006060830160008301518482036000860152613b6f8282613b19565b91505060208301518482036020860152613b898282613b19565b91505060408301518482036040860152613ba38282613b19565b9150508091505092915050565b60006020820190508181036000830152613bca8184613b52565b905092915050565b600060208284031215613be857613be761347c565b5b6000613bf6848285016136d2565b91505092915050565b60008060408385031215613c1657613c1561347c565b5b6000613c24858286016139a1565b9250506020613c358582860161361d565b9150509250929050565b613c488161350b565b8114613c5357600080fd5b50565b600081359050613c6581613c3f565b92915050565b60008060408385031215613c8257613c8161347c565b5b6000613c90858286016136d2565b9250506020613ca185828601613c56565b9150509250929050565b600067ffffffffffffffff821115613cc657613cc561375b565b5b613ccf82613590565b9050602081019050919050565b6000613cef613cea84613cab565b6137bb565b905082815260208101848484011115613d0b57613d0a613756565b5b613d16848285613807565b509392505050565b600082601f830112613d3357613d32613751565b5b8135613d43848260208601613cdc565b91505092915050565b60008060008060808587031215613d6657613d6561347c565b5b6000613d74878288016136d2565b9450506020613d85878288016136d2565b9350506040613d968782880161361d565b925050606085013567ffffffffffffffff811115613db757613db6613481565b5b613dc387828801613d1e565b91505092959194509250565b60008060408385031215613de657613de561347c565b5b6000613df4858286016136d2565b9250506020613e05858286016136d2565b9150509250929050565b7f4e487b7100000000000000000000000000000000000000000000000000000000600052602260045260246000fd5b60006002820490506001821680613e5657607f821691505b602082108103613e6957613e68613e0f565b5b50919050565b7f4552433732313a20617070726f76656420717565727920666f72206e6f6e657860008201527f697374656e7420746f6b656e0000000000000000000000000000000000000000602082015250565b6000613ecb602c8361354c565b9150613ed682613e6f565b604082019050919050565b60006020820190508181036000830152613efa81613ebe565b9050919050565b7f4552433732313a20617070726f76616c20746f2063757272656e74206f776e6560008201527f7200000000000000000000000000000000000000000000000000000000000000602082015250565b6000613f5d60218361354c565b9150613f6882613f01565b604082019050919050565b60006020820190508181036000830152613f8c81613f50565b9050919050565b7f4552433732313a20617070726f76652063616c6c6572206973206e6f74206f7760008201527f6e6572206e6f7220617070726f76656420666f7220616c6c0000000000000000602082015250565b6000613fef60388361354c565b9150613ffa82613f93565b604082019050919050565b6000602082019050818103600083015261401e81613fe2565b9050919050565b600081905092915050565b600061403b82613541565b6140458185614025565b935061405581856020860161355d565b80840191505092915050565b600061406d8286614030565b91506140798285614030565b91506140858284614030565b9150819050949350505050565b7f4552433732313a207472616e736665722063616c6c6572206973206e6f74206f60008201527f776e6572206e6f7220617070726f766564000000000000000000000000000000602082015250565b60006140ee60318361354c565b91506140f982614092565b604082019050919050565b6000602082019050818103600083015261411d816140e1565b9050919050565b7f455243373231456e756d657261626c653a206f776e657220696e646578206f7560008201527f74206f6620626f756e6473000000000000000000000000000000000000000000602082015250565b6000614180602b8361354c565b915061418b82614124565b604082019050919050565b600060208201905081810360008301526141af81614173565b9050919050565b7f416363657373436f6e74726f6c3a2063616e206f6e6c792072656e6f756e636560008201527f20726f6c657320666f722073656c660000000000000000000000000000000000602082015250565b6000614212602f8361354c565b915061421d826141b6565b604082019050919050565b6000602082019050818103600083015261424181614205565b9050919050565b7f4552433732315072657365744d696e7465725061757365724175746f49643a2060008201527f6d75737420686176652070617573657220726f6c6520746f20756e7061757365602082015250565b60006142a460408361354c565b91506142af82614248565b604082019050919050565b600060208201905081810360008301526142d381614297565b9050919050565b7f4552433732314275726e61626c653a2063616c6c6572206973206e6f74206f7760008201527f6e6572206e6f7220617070726f76656400000000000000000000000000000000602082015250565b600061433660308361354c565b9150614341826142da565b604082019050919050565b6000602082019050818103600083015261436581614329565b9050919050565b7f5365727665724e66743a206d7573742068617665206d696e74657220726f6c6560008201527f20746f206d696e74000000000000000000000000000000000000000000000000602082015250565b60006143c860288361354c565b91506143d38261436c565b604082019050919050565b600060208201905081810360008301526143f7816143bb565b9050919050565b7f546865206c656e7468206f66206d616e7566616374757265722069732030206f60008201527f72206d6f7265207468616e203136000000000000000000000000000000000000602082015250565b600061445a602e8361354c565b9150614465826143fe565b604082019050919050565b600060208201905081810360008301526144898161444d565b9050919050565b7f546865206c656e7468206f6620534e2069732030206f72206d6f72652074686160008201527f6e20313600000000000000000000000000000000000000000000000000000000602082015250565b60006144ec60248361354c565b91506144f782614490565b604082019050919050565b6000602082019050818103600083015261451b816144df565b9050919050565b7f546865207365727665722069642068617320616c72656164792065786973746560008201527f642e000000000000000000000000000000000000000000000000000000000000602082015250565b600061457e60228361354c565b915061458982614522565b604082019050919050565b600060208201905081810360008301526145ad81614571565b9050919050565b7f4e487b7100000000000000000000000000000000000000000000000000000000600052601160045260246000fd5b60006145ee826135fc565b91506145f9836135fc565b9250827fffffffffffffffffffffffffffffffffffffffffffffffffffffffffffffffff0382111561462e5761462d6145b4565b5b828201905092915050565b7f455243373231456e756d657261626c653a20676c6f62616c20696e646578206f60008201527f7574206f6620626f756e64730000000000000000000000000000000000000000602082015250565b6000614695602c8361354c565b91506146a082614639565b604082019050919050565b600060208201905081810360008301526146c481614688565b9050919050565b7f4e487b7100000000000000000000000000000000000000000000000000000000600052603260045260246000fd5b7f4552433732313a206f776e657220717565727920666f72206e6f6e657869737460008201527f656e7420746f6b656e0000000000000000000000000000000000000000000000602082015250565b600061475660298361354c565b9150614761826146fa565b604082019050919050565b6000602082019050818103600083015261478581614749565b9050919050565b7f4552433732313a2062616c616e636520717565727920666f7220746865207a6560008201527f726f206164647265737300000000000000000000000000000000000000000000602082015250565b60006147e8602a8361354c565b91506147f38261478c565b604082019050919050565b60006020820190508181036000830152614817816147db565b9050919050565b7f4552433732315072657365744d696e7465725061757365724175746f49643a2060008201527f6d75737420686176652070617573657220726f6c6520746f2070617573650000602082015250565b600061487a603e8361354c565b91506148858261481e565b604082019050919050565b600060208201905081810360008301526148a98161486d565b9050919050565b7f4552433732314d657461646174613a2055524920717565727920666f72206e6f60008201527f6e6578697374656e7420746f6b656e0000000000000000000000000000000000602082015250565b600061490c602f8361354c565b9150614917826148b0565b604082019050919050565b6000602082019050818103600083015261493b816148ff565b9050919050565b600061494e8285614030565b915061495a8284614030565b91508190509392505050565b7f4552433732313a206f70657261746f7220717565727920666f72206e6f6e657860008201527f697374656e7420746f6b656e0000000000000000000000000000000000000000602082015250565b60006149c2602c8361354c565b91506149cd82614966565b604082019050919050565b600060208201905081810360008301526149f1816149b5565b9050919050565b7f4552433732313a207472616e736665722066726f6d20696e636f72726563742060008201527f6f776e6572000000000000000000000000000000000000000000000000000000602082015250565b6000614a5460258361354c565b9150614a5f826149f8565b604082019050919050565b60006020820190508181036000830152614a8381614a47565b9050919050565b7f4552433732313a207472616e7366657220746f20746865207a65726f2061646460008201527f7265737300000000000000000000000000000000000000000000000000000000602082015250565b6000614ae660248361354c565b9150614af182614a8a565b604082019050919050565b60006020820190508181036000830152614b1581614ad9565b9050919050565b6000614b27826135fc565b9150614b32836135fc565b925082821015614b4557614b446145b4565b5b828203905092915050565b7f5061757361626c653a206e6f7420706175736564000000000000000000000000600082015250565b6000614b8660148361354c565b9150614b9182614b50565b602082019050919050565b60006020820190508181036000830152614bb581614b79565b9050919050565b7f4552433732313a206d696e7420746f20746865207a65726f2061646472657373600082015250565b6000614bf260208361354c565b9150614bfd82614bbc565b602082019050919050565b60006020820190508181036000830152614c2181614be5565b9050919050565b7f4552433732313a20746f6b656e20616c7265616479206d696e74656400000000600082015250565b6000614c5e601c8361354c565b9150614c6982614c28565b602082019050919050565b60006020820190508181036000830152614c8d81614c51565b9050919050565b7f5061757361626c653a2070617573656400000000000000000000000000000000600082015250565b6000614cca60108361354c565b9150614cd582614c94565b602082019050919050565b60006020820190508181036000830152614cf981614cbd565b9050919050565b7f4552433732313a20617070726f766520746f2063616c6c657200000000000000600082015250565b6000614d3660198361354c565b9150614d4182614d00565b602082019050919050565b60006020820190508181036000830152614d6581614d29565b9050919050565b7f4552433732313a207472616e7366657220746f206e6f6e20455243373231526560008201527f63656976657220696d706c656d656e7465720000000000000000000000000000602082015250565b6000614dc860328361354c565b9150614dd382614d6c565b604082019050919050565b60006020820190508181036000830152614df781614dbb565b9050919050565b6000614e09826135fc565b91507fffffffffffffffffffffffffffffffffffffffffffffffffffffffffffffffff8203614e3b57614e3a6145b4565b5b600182019050919050565b7f4e487b7100000000000000000000000000000000000000000000000000000000600052601260045260246000fd5b6000614e80826135fc565b9150614e8b836135fc565b925082614e9b57614e9a614e46565b5b828204905092915050565b6000614eb1826135fc565b9150614ebc836135fc565b925082614ecc57614ecb614e46565b5b828206905092915050565b7f416363657373436f6e74726f6c3a206163636f756e7420000000000000000000600082015250565b6000614f0d601783614025565b9150614f1882614ed7565b601782019050919050565b7f206973206d697373696e6720726f6c6520000000000000000000000000000000600082015250565b6000614f59601183614025565b9150614f6482614f23565b601182019050919050565b6000614f7a82614f00565b9150614f868285614030565b9150614f9182614f4c565b9150614f9d8284614030565b91508190509392505050565b600081519050919050565b600082825260208201905092915050565b6000614fd082614fa9565b614fda8185614fb4565b9350614fea81856020860161355d565b614ff381613590565b840191505092915050565b60006080820190506150136000830187613691565b6150206020830186613691565b61502d6040830185613727565b818103606083015261503f8184614fc5565b905095945050505050565b600081519050615059816134b2565b92915050565b6000602082840312156150755761507461347c565b5b60006150838482850161504a565b91505092915050565b7f4552433732315061757361626c653a20746f6b656e207472616e73666572207760008201527f68696c6520706175736564000000000000000000000000000000000000000000602082015250565b60006150e8602b8361354c565b91506150f38261508c565b604082019050919050565b60006020820190508181036000830152615117816150db565b9050919050565b6000615129826135fc565b9150615134836135fc565b9250817fffffffffffffffffffffffffffffffffffffffffffffffffffffffffffffffff048311821515161561516d5761516c6145b4565b5b828202905092915050565b6000615183826135fc565b915060008203615196576151956145b4565b5b600182039050919050565b7f537472696e67733a20686578206c656e67746820696e73756666696369656e74600082015250565b60006151d760208361354c565b91506151e2826151a1565b602082019050919050565b60006020820190508181036000830152615206816151ca565b9050919050565b7f4e487b7100000000000000000000000000000000000000000000000000000000600052603160045260246000fdfea2646970667358221220fe44eece53cd44c3a405f5445ba208be66d19d11398d22cd027e53b4852ba9a964736f6c634300080e0033",
  "immutableReferences": {},
  "source": "pragma solidity ^0.8;\n// SPDX-License-Identifier: MIT\n\nimport \"@openzeppelin/contracts/token/ERC721/ERC721.sol\";\nimport \"@openzeppelin/contracts/token/ERC721/extensions/ERC721Enumerable.sol\";\nimport \"@openzeppelin/contracts/token/ERC721/extensions/ERC721Burnable.sol\";\nimport \"@openzeppelin/contracts/token/ERC721/extensions/ERC721Pausable.sol\";\nimport \"@openzeppelin/contracts/access/AccessControlEnumerable.sol\";\nimport \"@openzeppelin/contracts/utils/Context.sol\";\nimport \"@openzeppelin/contracts/utils/Counters.sol\";\n\n/**\n * @dev {ERC721} token, including:\n *\n *  - ability for holders to burn (destroy) their tokens\n *  - a minter role that allows for token minting (creation)\n *  - a pauser role that allows to stop all token transfers\n *  - token ID and URI autogeneration\n *\n * This contract uses {AccessControl} to lock permissioned functions using the\n * different roles - head to its documentation for details.\n *\n * The account that deploys the contract will be granted the minter and pauser\n * roles, as well as the default admin role, which will let it grant both minter\n * and pauser roles to other accounts.\n *\n * _Deprecated in favor of https://wizard.openzeppelin.com/[Contracts Wizard]._\n */\ncontract ServerNft is\n    Context,\n    AccessControlEnumerable,\n    ERC721Enumerable,\n    ERC721Burnable,\n    ERC721Pausable\n{\n    using Counters for Counters.Counter;\n\n    bytes32 public constant MINTER_ROLE = keccak256(\"MINTER_ROLE\");\n    bytes32 public constant PAUSER_ROLE = keccak256(\"PAUSER_ROLE\");\n\n    struct Server {\n        string manufacturer;\n        string sn;\n        string manufactureDate;\n    }\n\n    mapping(uint256 => Server) private _servers; // The token id maps to Server\n    mapping(bytes32 => uint256) private _tokens; // keccak256(Server) map to token id\n\n    Counters.Counter private _tokenIdTracker;\n\n    string private _baseTokenURI;\n\n    /**\n     * @dev Grants `DEFAULT_ADMIN_ROLE`, `MINTER_ROLE` and `PAUSER_ROLE` to the\n     * account that deploys the contract.\n     *\n     * Token URIs will be autogenerated based on `baseURI` and their token IDs.\n     * See {ERC721-tokenURI}.\n     */\n    constructor(\n        string memory name,\n        string memory symbol,\n        string memory baseTokenURI\n    ) ERC721(name, symbol) {\n        _baseTokenURI = baseTokenURI;\n\n        _setupRole(DEFAULT_ADMIN_ROLE, _msgSender());\n\n        _setupRole(MINTER_ROLE, _msgSender());\n        _setupRole(PAUSER_ROLE, _msgSender());\n    }\n\n    function _baseURI() internal view virtual override returns (string memory) {\n        return _baseTokenURI;\n    }\n\n    /**\n     * @dev Creates a new token for `to`. Its token ID will be automatically\n     * assigned (and available on the emitted {IERC721-Transfer} event), and the token\n     * URI autogenerated based on the base URI passed at construction.\n     *\n     * See {ERC721-_mint}.\n     *\n     * Requirements:\n     *\n     * - the caller must have the `MINTER_ROLE`.\n     * - the server id, keccak256(manufacturer, sn, manu_date), doesn't exist\n     */\n    function mint(\n        address to,\n        string memory manufacturer,\n        string memory sn,\n        string memory manu_date\n    ) public virtual {\n        require(\n            hasRole(MINTER_ROLE, _msgSender()),\n            \"ServerNft: must have minter role to mint\"\n        );\n\n        require(\n            bytes(manufacturer).length > 0 && bytes(manufacturer).length < 16,\n            \"The lenth of manufacturer is 0 or more than 16\"\n        );\n        require(\n            bytes(sn).length > 0 && bytes(sn).length < 16,\n            \"The lenth of SN is 0 or more than 16\"\n        );\n        require(\n            bytes(manu_date).length > 0 && bytes(manu_date).length < 16,\n            \"The lenth of manufacturer is 0 or more than 16\"\n        );\n\n        // We cannot just use balanceOf to create the new tokenId because tokens\n        // can be burned (destroyed), so we need a separate counter.\n        bytes32 server_id = keccak256(\n            abi.encodePacked(manufacturer, sn, manu_date)\n        );\n\n        require(_tokens[server_id] == 0, \"The server id has already existed.\");\n\n        //if(token_id)\n        //require(bytes(_servers[token_id].sn).length == 0, \"The server id has alrady existed\");\n\n        // The token id starts at 1 .\n        uint256 token_id = _tokenIdTracker.current() + 1;\n\n        // Map the server id to token id\n        _tokens[server_id] = token_id;\n\n        // Map the token id to Server\n        _servers[token_id] = Server({\n            manufacturer: manufacturer,\n            sn: sn,\n            manufactureDate: manu_date\n        });\n\n        _mint(to, token_id);\n\n        _tokenIdTracker.increment();\n    }\n\n    function minted_amount() public view returns (uint256) {\n        return _tokenIdTracker.current();\n    }\n\n    function get_token_id(\n        string memory manufacturer,\n        string memory sn,\n        string memory manu_date\n    ) public view returns (uint256) {\n        bytes32 server_id = keccak256(\n            abi.encodePacked(manufacturer, sn, manu_date)\n        );\n\n        return _tokens[server_id];\n    }\n\n    function get_server(uint256 token_id) public view returns (Server memory) {\n        return _servers[token_id];\n    }\n    \n    /**\n     * @dev Pauses all token transfers.\n     *\n     * See {ERC721Pausable} and {Pausable-_pause}.\n     *\n     * Requirements:\n     *\n     * - the caller must have the `PAUSER_ROLE`.\n     */\n    function pause() public virtual {\n        require(\n            hasRole(PAUSER_ROLE, _msgSender()),\n            \"ERC721PresetMinterPauserAutoId: must have pauser role to pause\"\n        );\n        _pause();\n    }\n\n    /**\n     * @dev Unpauses all token transfers.\n     *\n     * See {ERC721Pausable} and {Pausable-_unpause}.\n     *\n     * Requirements:\n     *\n     * - the caller must have the `PAUSER_ROLE`.\n     */\n    function unpause() public virtual {\n        require(\n            hasRole(PAUSER_ROLE, _msgSender()),\n            \"ERC721PresetMinterPauserAutoId: must have pauser role to unpause\"\n        );\n        _unpause();\n    }\n\n    function _beforeTokenTransfer(\n        address from,\n        address to,\n        uint256 tokenId\n    ) internal virtual override(ERC721, ERC721Enumerable, ERC721Pausable) {\n        super._beforeTokenTransfer(from, to, tokenId);\n    }\n\n    /**\n     * @dev See {IERC165-supportsInterface}.\n     */\n    function supportsInterface(bytes4 interfaceId)\n        public\n        view\n        virtual\n        override(AccessControlEnumerable, ERC721, ERC721Enumerable)\n        returns (bool)\n    {\n        return super.supportsInterface(interfaceId);\n    }\n}\n",
  "sourcePath": "/home/hunter/Projects/solidity/server-nft/contracts/ServerNft.sol",
  "compiler": {
    "name": "solc",
    "version": "0.8.14+commit.80d49f37.Emscripten.clang"
  },
  "schemaVersion": "3.4.7",
  "updatedAt": "2022-06-20T09:26:48.971Z",
  "networkType": "ethereum",
  "devdoc": {
    "details": "{ERC721} token, including:  - ability for holders to burn (destroy) their tokens  - a minter role that allows for token minting (creation)  - a pauser role that allows to stop all token transfers  - token ID and URI autogeneration This contract uses {AccessControl} to lock permissioned functions using the different roles - head to its documentation for details. The account that deploys the contract will be granted the minter and pauser roles, as well as the default admin role, which will let it grant both minter and pauser roles to other accounts. _Deprecated in favor of https://wizard.openzeppelin.com/[Contracts Wizard]._",
    "kind": "dev",
    "methods": {
      "approve(address,uint256)": {
        "details": "See {IERC721-approve}."
      },
      "balanceOf(address)": {
        "details": "See {IERC721-balanceOf}."
      },
      "burn(uint256)": {
        "details": "Burns `tokenId`. See {ERC721-_burn}. Requirements: - The caller must own `tokenId` or be an approved operator."
      },
      "constructor": {
        "details": "Grants `DEFAULT_ADMIN_ROLE`, `MINTER_ROLE` and `PAUSER_ROLE` to the account that deploys the contract. Token URIs will be autogenerated based on `baseURI` and their token IDs. See {ERC721-tokenURI}."
      },
      "getApproved(uint256)": {
        "details": "See {IERC721-getApproved}."
      },
      "getRoleAdmin(bytes32)": {
        "details": "Returns the admin role that controls `role`. See {grantRole} and {revokeRole}. To change a role's admin, use {_setRoleAdmin}."
      },
      "getRoleMember(bytes32,uint256)": {
        "details": "Returns one of the accounts that have `role`. `index` must be a value between 0 and {getRoleMemberCount}, non-inclusive. Role bearers are not sorted in any particular way, and their ordering may change at any point. WARNING: When using {getRoleMember} and {getRoleMemberCount}, make sure you perform all queries on the same block. See the following https://forum.openzeppelin.com/t/iterating-over-elements-on-enumerableset-in-openzeppelin-contracts/2296[forum post] for more information."
      },
      "getRoleMemberCount(bytes32)": {
        "details": "Returns the number of accounts that have `role`. Can be used together with {getRoleMember} to enumerate all bearers of a role."
      },
      "grantRole(bytes32,address)": {
        "details": "Grants `role` to `account`. If `account` had not been already granted `role`, emits a {RoleGranted} event. Requirements: - the caller must have ``role``'s admin role."
      },
      "hasRole(bytes32,address)": {
        "details": "Returns `true` if `account` has been granted `role`."
      },
      "isApprovedForAll(address,address)": {
        "details": "See {IERC721-isApprovedForAll}."
      },
      "mint(address,string,string,string)": {
        "details": "Creates a new token for `to`. Its token ID will be automatically assigned (and available on the emitted {IERC721-Transfer} event), and the token URI autogenerated based on the base URI passed at construction. See {ERC721-_mint}. Requirements: - the caller must have the `MINTER_ROLE`. - the server id, keccak256(manufacturer, sn, manu_date), doesn't exist"
      },
      "name()": {
        "details": "See {IERC721Metadata-name}."
      },
      "ownerOf(uint256)": {
        "details": "See {IERC721-ownerOf}."
      },
      "pause()": {
        "details": "Pauses all token transfers. See {ERC721Pausable} and {Pausable-_pause}. Requirements: - the caller must have the `PAUSER_ROLE`."
      },
      "paused()": {
        "details": "Returns true if the contract is paused, and false otherwise."
      },
      "renounceRole(bytes32,address)": {
        "details": "Revokes `role` from the calling account. Roles are often managed via {grantRole} and {revokeRole}: this function's purpose is to provide a mechanism for accounts to lose their privileges if they are compromised (such as when a trusted device is misplaced). If the calling account had been revoked `role`, emits a {RoleRevoked} event. Requirements: - the caller must be `account`."
      },
      "revokeRole(bytes32,address)": {
        "details": "Revokes `role` from `account`. If `account` had been granted `role`, emits a {RoleRevoked} event. Requirements: - the caller must have ``role``'s admin role."
      },
      "safeTransferFrom(address,address,uint256)": {
        "details": "See {IERC721-safeTransferFrom}."
      },
      "safeTransferFrom(address,address,uint256,bytes)": {
        "details": "See {IERC721-safeTransferFrom}."
      },
      "setApprovalForAll(address,bool)": {
        "details": "See {IERC721-setApprovalForAll}."
      },
      "supportsInterface(bytes4)": {
        "details": "See {IERC165-supportsInterface}."
      },
      "symbol()": {
        "details": "See {IERC721Metadata-symbol}."
      },
      "tokenByIndex(uint256)": {
        "details": "See {IERC721Enumerable-tokenByIndex}."
      },
      "tokenOfOwnerByIndex(address,uint256)": {
        "details": "See {IERC721Enumerable-tokenOfOwnerByIndex}."
      },
      "tokenURI(uint256)": {
        "details": "See {IERC721Metadata-tokenURI}."
      },
      "totalSupply()": {
        "details": "See {IERC721Enumerable-totalSupply}."
      },
      "transferFrom(address,address,uint256)": {
        "details": "See {IERC721-transferFrom}."
      },
      "unpause()": {
        "details": "Unpauses all token transfers. See {ERC721Pausable} and {Pausable-_unpause}. Requirements: - the caller must have the `PAUSER_ROLE`."
      }
    },
    "version": 1
  },
  "userdoc": {
    "kind": "user",
    "methods": {},
    "version": 1
  }
}